:020000040800F2
:10000000880B0020050100087345000885390008A9
:100010007145000885140008A14F00080000000089
:100020000000000000000000000000009D490008E2
:100030009D17000800000000654800089F4900085F
:100040001F0100081F0100081F0100081F01000810
:100050001F0100081F0100089F1700081F0100086A
:100060001F0100081F0100081F0100088914000873
:100070001F0100081F0100081F0100081F010008E0
:10008000951400081F010008C90900081F01000895
:100090001F0100081F0100081F0100081F010008C0
:1000A0001F0100081F0100081F0100081F010008B0
:1000B0001F0100081F0100081F0100081F010008A0
:1000C0001F0100081F0100081F0100081F01000890
:1000D0001F010008954F00081F0100081F010008BC
:1000E0001F0100081F0100081F010008DFF810D0E1
:1000F00000F0DAFB00480047BD5B0008AFF300806A
:10010000880B00200648804706480047FEE7FEE7C8
:10011000FEE7FEE7FEE7FEE7FEE7FEE7FEE7FEE7B7
:100120001B4A0008ED000008202A04DB203A21FACF
:1001300002F00021704721FA02F3D040C2F1200200
:100140009140084319467047D2B201E000F8012BF4
:10015000491EFBD270470022F6E710B513460A4647
:1001600004461946FFF7F0FF204610BDF0B480EAC0
:100170000102D40F4200B2EB410F02D20246084600
:1001800011464A0042D0C30DDDB2C1F3C752AD1AC9
:10019000202D35DAC1F3160141F4000204B15242B8
:1001A000C5F1200602FA06F12A411044B3EBD05FF4
:1001B00023D0C4B1012DA0EBC35009DCF0BC4FF03B
:1001C000004202EAC352DBB200F5000000F040B981
:1001D000400000F1807000EBC350A0F1807040EA55
:1001E000D170490009E0490841EAC071A0EBC35051
:1001F00000F50000400800EBC350F0BC00F01FB950
:100200006142012202EB4101001BF6E7F0BC70479E
:1002100081F00041AAE780F00040A7E780EA0102F0
:1002200010B502F00043400022D04A001FD0010E5A
:1002300001EB1261C0F35600C2F3560240F4000015
:1002400042F40002A0FB022000047F39140400D015
:10025000401C50EA124001D44000491EC2B20C06B4
:1002600004EBD010401C4008802A02D003E000209C
:1002700010BD20F00100002900DA0020184310BD55
:1002800030B480EA010202F0004530F0004221F073
:10029000004013D090B1C30DD40DC2F31601C0F3CA
:1002A0001600E41A41F4000140F400027D3491424A
:1002B00001D3641C00E04900002C02DA30BC0020AD
:1002C00070474FF400000023914201D3891A034381
:1002D00040084FEA4101F7D151B1914202D14FF0AC
:1002E000004105E002D24FF0010101E06FF0010191
:1002F00003EBC450284430BC00F0A1B8420005D044
:10030000C0F3C7525242914201DC0020704700EB1B
:10031000C1507047C10F80EAE0700844CA079623B5
:10032000002100F095B896230022114600F090B805
:1003300000F0004220F00040C10DC0F3160040F470
:1003400000007F2901DA00207047962903DCC1F103
:100350009601C84001E096398840002AF4D0404216
:10036000704720F00040C10DC0F3160040F40000BB
:100370007F2901DA00207047962903DCC1F196013C
:10038000C840704796398840704700F0004230F00E
:1003900000400AD0C10D01F56071C0F3160042EAB9
:1003A0000151C208400711437047002001467047C1
:1003B00030B50B46014600202022012409E021FA35
:1003C00002F59D4205D303FA02F5491B04FA02F532
:1003D0002844151EA2F10102F1DC30BD2DE9F05FC9
:1003E0000546002092469B468846064681464024A4
:1003F0001BE02846414647462246FFF795FE5346F6
:100400005A46C01A914110D311461846224600F0B0
:100410005DFA2D1A67EB01084F46224601200021A4
:1004200000F054FA17EB00094E41201EA4F101041C
:10043000DFDC484631462A464346BDE8F09F0029A6
:10044000A8BF7047401C490008BF20F0010070475A
:1004500010B4B0FA80FC00FA0CF050EA010404BFBA
:1004600010BC704749B1CCF1200421FA04F411FA10
:100470000CF118BF012121430843A3EB0C01CB1D54
:100480004FEA00614FEA102042BF002010BC7047C5
:1004900000EBC35010440029A4BF10BC7047401C9F
:1004A000490008BF20F0010010BC704710B54100A2
:1004B0000CD0C0F3C751962908DC7E2909DC06DB85
:1004C000410204D000F0004040F07E5010BD0020FA
:1004D00010BDC1F19604C4F1200100FA01F1E04021
:1004E000FFF7ADFFA04010BD2DE9FE4F804681EA29
:1004F0000300C00F0C46009021F0004123F000459E
:10050000B8EB0200A94105D24046214690461C4660
:100510000B46024623F00040104347D0270DC7F397
:100520000A00C3F30A510290401A019040286BDA86
:10053000C3F3130040F4801B0098924620B10023BF
:10054000D2EB030A63EB0B0B01985946C0F1400252
:10055000504600F0BBF906460D4650465946019AF2
:1005600000F0C3F910EB08006141002487EA115242
:1005700084EAE7731A4340D0009A62B3019A012AD1
:100580004FEA075215DC001B61EB02014FF00042FD
:1005900002EA0752CDE90042001C41F580113246C3
:1005A0002B4600F0C3F903B0BDE8F08F404621466A
:1005B000F9E7001B61EB0201001C41F580130018F4
:1005C0005B412018A2F5001747EB030140EAD57004
:1005D000B6196D4111E06D084FEA360645EAC0755F
:1005E0004FEA0752001B61EB0201001C41F580112C
:1005F00049084FEA30000019514132462B4603B0FA
:10060000BDE8F04F00F083B90098012240000023BC
:10061000D0EB020263EBE073009821464FEAE074EE
:10062000B8EB000061EB0401E9E783F000435BE70E
:1006300081F0004158E72DE9FE4F81EA030404F000
:10064000004421F0004100944FF0000B23F00043E0
:1006500050EA01045ED052EA03045BD0C3F30A54AB
:10066000C1F30A552C44A4F2F3340194A0FB0254C4
:10067000C1F3130141F48011C3F3130343F4801356
:1006800001FB024400FB034E840A970A44EA8154AA
:1006900047EA8357A4FB076802958D0A05FB078587
:1006A0004FEA932C04FB0C542705029D4FEA065891
:1006B00047EA1637B5EB08056EEB070C870E920E6E
:1006C00047EA811742EA8312A7FB0201B6EB0B014E
:1006D00064EB00042B0D43EA0C335E1844EB1C5012
:1006E000DA465146E7FB0201C5F313044FEA0B3328
:1006F00043EA14534FEA0432019C43EA0603A4F18F
:100700000C040294009CCDE900B400F00FF903B092
:10071000BDE8F08F00200146F9E72DE9F04D81EAB0
:10072000030404F0004B21F0004514464FF0000A8A
:1007300023F0004150EA050220D054EA01021DD006
:10074000C5F30A570246C5F31303C1F31300C1F3FF
:100750000A5640F4801543F48013A7EB0608101BDB
:10076000D64608F2FD3873EB050002D308F1010804
:1007700001E092185B41B8F1000F03DA0020014656
:10078000BDE8F08D00204FF48011064684460EE04F
:10079000171B73EB050705D3121B63EB0503064319
:1007A0004CEA010C49084FEA300092185B4150EACC
:1007B0000107EDD152EA030012D082EA040083EA75
:1007C0000501084305D0101BAB4106D201220023CE
:1007D00006E000224FF0004302E06FF001025310E8
:1007E0001AEB06004CEB085110EB0A0041EB0B0131
:1007F000BDE8F04D00F08BB8C1F30A52C1F313010C
:1008000040F2FF3341F480119A4202DA002001469F
:10081000704740F233439A42A2F2334202DC524222
:10082000FFF782BC00F052B810B500F0004420F091
:100830000040C20DC0F3160040F400007F2A07DA22
:100840007D2A00DA7D22763A00FA02F1002008E0E3
:10085000962A09DCA2F1760100FA01F1C2F19602B2
:10086000D040FFF7ECFD01E0963A9040002C00D01C
:10087000404210BD30B5041E71F1000404DB4FF09E
:100880000044404264EB0101141E73F1000405DBD7
:100890001C464FF00043524263EB0403994208BFE9
:1008A000904230BD00207047064C074D06E0E068DE
:1008B00040F0010394E8070098471034AC42F6D3A7
:1008C000FFF718FCBC6E0008DC6E0008202A04DB71
:1008D000203A00FA02F1002070479140C2F1200353
:1008E00020FA03F3194390407047202A06DBCB1708
:1008F000203A41FA02F043EAE07306E041FA02F3DB
:10090000D040C2F12002914008431946704710B50B
:10091000141E73F1000408DA401C41F10001921822
:100920005B411A4301D120F0010010BD2DE9F04DCB
:1009300092469B4611B1B1FA81F202E0B0FA80F220
:1009400020329046FFF7C2FF04460F4640EA0A00F5
:1009500041EA0B0153465A46084313D0114653EA65
:10096000010019D0C8F140025046FFF7DDFB0546F3
:100970000E46504659464246FFF7A8FF084305D0A9
:10098000012004E020463946BDE8F08D00200543F3
:1009900046EAE0762C4337430A986305E40AA0EB65
:1009A00008000022FD0A44EA47540A3002D500201C
:1009B0000146E9E7010510196941DDE9084500191B
:1009C0006941BDE8F04DA2E7014800F0D6BF000044
:1009D0007800002070B5044600688168C943C907E3
:1009E00017D1816821F00101816001F035FC0546D5
:1009F0000AE000BF01F030FC401B022804D9206847
:100A00008068C043C00706D020688068C043C00724
:100A1000F0D0002070BDA06A40F01000A062E06A33
:100A200040F00100E062012070BD10B50146406A4F
:100A3000826A12F0500F05D0006A026BBDE81040C8
:100A400008461047816A41F4007181620168896833
:100A5000C1F3424107290CD1017B51B9816A21F4CC
:100A600080718162816AC90403D4816A41F0010105
:100A7000816200F07FFF10BD10B5406A816A41F0CD
:100A800040018162C16A41F00401C16200F074FF5B
:100A900010BD10B5406A00F06EFF10BDF8B500261D
:100AA0000446009600688168C943C9072DD0816853
:100AB00041F001018160164816490068B0FBF1F071
:100AC00000E0401E00900028FBD101F0C5FB054668
:100AD00016E000BF01F0C0FB401B022810D92068BF
:100AE0008068C043C0070BD0A06A40F01000A0622D
:100AF000E06A40F00100E06284F824600120F8BD63
:100B000020688068C043C007E4D10020F8BD000021
:100B10000C00002040420F0010B503F0ABFD03F0C5
:100B200029FD61A20321012003F067FE022161A2D9
:100B3000084603F062FE63A20521032003F05DFE78
:100B4000042162A2084603F058FE4FF44874204680
:100B500001F068FA03F00EFD01215FA2084603F0E0
:100B60004CFEC82001F05EFA5FA20121022003F0D2
:100B700044FE03F039F9962001F054FA02215DA2F7
:100B8000084603F03AFE5CA20121032003F035FE83
:100B900000F068FC962001F045FA56A202210320DD
:100BA00003F02BFE57A20121042003F026FE03F0E0
:100BB00085FAC82001F036FA4EA20221042003F083
:100BC0001CFE4FF4967001F02DFA03F0D3FC0121C6
:100BD00041A2084603F011FE4EA20121022003F0BB
:100BE0000CFE00F073FC962001F01CFA022141A2D9
:100BF000084603F002FE4BA20121032003F0FDFD95
:100C000000F02EFE962001F00DFA3AA202210320F8
:100C100003F0F3FD47A20121042003F0EEFD00F0F4
:100C200035FD962001F0FEF932A20221042003F0E6
:100C3000E4FD601001F0F6F903F09CFC41A20221F2
:100C4000012003F0DAFD43A20121032003F0D5FDCA
:100C500044A20221042003F0D0FD00F00BFC64202C
:100C600001F0E0F900F0FEFB204601F0DBF903F0B3
:100C70009BF83F49087003F07DFC3EA20221012051
:100C800003F0BBFD3FA20121022003F0B6FD40A20C
:100C90000121032003F0B1FD0121BDE8104040A275
:100CA000042003F0AABD000053544D3332463130C6
:100CB000334338004D756C74692D53656E736F72D4
:100CC0000000000053797374656D000076312E309A
:100CD0002E32303235000000496E697469616C69EA
:100CE0007A696E672E2E2E005B20205D204B657981
:100CF000730000004F4B00005B20205D20426565C3
:100D0000700000005B20205D204D415833303130B1
:100D1000300000005B20205D2044533138423230E7
:100D2000000000005B20205D204C69676874205340
:100D30006E7300005B20205D2050726F746F636FD4
:100D40006C00000053797374656D2052656164799D
:100D5000000000005072657373204B657920746F3A
:100D60000000000053656C656374204D6F6465007E
:100D70001000002053656C656374204D6F64653A04
:100D800000000000312E485220262053704F3200C0
:100D9000322E54656D706572617475726500000065
:100DA000332E4C69676874204C6576656C000000D2
:100DB0002DE9F84F01F050FAFE4C05464FF4FA7653
:100DC0006069281AB04202D300F0AEFC656101F000
:100DD00043FA05462069B346281A58450BD300F05C
:100DE000E3FC1E2801D9002200E001220221F24882
:100DF00001F02DFA256101F02FFA0546A069281AA5
:100E0000232804D300F006FD05F0E6FAA56102F000
:100E1000CBFF064620784FF0FF0826EA0000C10706
:100E20004FF0010A4FF0000535D000F023FB64209D
:100E300001F0F8F800F016FB207900287CD025712D
:100E400003F098FB0121DDA2084603F0D6FCDFA2E7
:100E50000121022003F0D1FCE0A20121032003F0D4
:100E6000CCFCE1A20121042003F0C7FC84F801803E
:100E700084F80280DFA20121042003F0BEFC584662
:100E800001F0D0F8DFA20121042003F0B6FC657167
:100E900000F0E8FA50E0810725D500F0EBFA642075
:100EA00001F0C0F800F0DEFA2079012844D084F87F
:100EB00004A003F05FFBD7A20121022003F09DFCF8
:100EC000D6A20721022003F098FC0121D5A20846F2
:100ED00003F093FC584601F0A5F80121D5A208467D
:100EE00003F08BFC28E0400726D500F0C3FA64200D
:100EF00001F098F800F0B6FA207902281AD0022002
:100F0000207103F037FB0121CEA2084603F075FCE7
:100F1000D0A20121022003F070FCD0A20721022000
:100F200003F06BFC0121CFA2084603F066FC584693
:100F300001F078F805F0D6FB26702079002866D0FD
:100F400001287DD002287CD101F086F90646206A6E
:100F5000301A584575D300F05DFC074600F070FC70
:100F6000804600F021FC81460121B6A2084603F02C
:100F700044FCB8A20121022003F03FFC03234A46AF
:100F80000721022003F018FCBAA20A21022003F074
:100F900034FCB9A20121032003F02FFC04233A46BC
:100FA0000521032003F008FCB5A20121042003F071
:100FB00024FC4046FFF7D5F987B23846FFF7B3F96E
:100FC0004146FFF728F9B149FFF728F9FFF7C9F9BA
:100FD0001FFA80F801233A460921042003F0ECFBB4
:100FE000ABA20A21042003F008FC022342460B2195
:100FF000042003F0E1FBA7A20D21042003F0FDFB78
:10100000B9F1460F7DD9A07900287BD0D4E102F058
:101010001FFF064602F0BCFF074656EA070000D055
:101020000120E178884206D0E07038B39AA201210D
:10103000042003F0E2FB607856B3B04211D001E027
:1010400038E019E0032332460721022003F0B4FB05
:101050006670283E8C2E04D893A20121042003F050
:10106000CCFBA078EFB1B84206D003233A46072163
:10107000184603F0A1FBA770BDE8F88F61A201211B
:10108000042003F0BAFB84F8018084F80280D2E7E0
:101090000028E6D056A20721022003F0AEFB6570BF
:1010A000DFE70028E8D052A20721032003F0A5FBC8
:1010B000A570E1E701F0D0F80746E069381AB0F50D
:1010C000FA6FD9D300F076FAD0B30121A946E571C1
:1010D00078A2084603F091FBCC2000F0A9FA442046
:1010E00000F0A6FA4FF4487000F09CFF00F044FABC
:1010F00074490546884259D87348854256DC2846CB
:1011000001E078E155E1FFF713F900B20090FFF735
:1011100001F92946FFF77FF85C49FFF77FF8FFF7F1
:1011200007F906B2002E01DA704206B203F022FA85
:1011300066484FF00A08854239DD607980B112E0D7
:10114000FFE7E0790121401CE07161A2084603F04D
:1011500054FB63A20121032003F04FFB657124E1DE
:1011600084F805A0A760A068DFF88491381AB0FB66
:10117000FBF0C0074FF400451AD000F073F90122CC
:101180002946484601F063F801215AA2084603F0B7
:1011900034FB20A20121022003F02FFB02230621B1
:1011A0001846009A03F008FB39A2ABE0EBE0C4E07C
:1011B000BFE0000010000020000801403D3D485203
:1011C00020262053504F323D3D000000486561729B
:1011D000743A2020202062706D00000053704F325E
:1011E000203A2020202025005374617475733A2022
:1011F0002D2D2D005374617475733A20496E6974F6
:10120000000000005374617475733A20576169746B
:101210000000000054656D703A000000202020435B
:101220000000000054656D70204D6F646520202023
:101230002020200052656164696E672E2E2E2020CA
:10124000202020004C69676874204C6576656C200E
:10125000202020004C6576656C3A00002020202577
:10126000000000004C69676874204D6F64652020A1
:1012700020202000250000004144433A00000000E7
:10128000566F6C746167653A000000000000C84248
:101290002E000000560000005374617475733A20EC
:1012A0004D656173000000005374617475733A20DA
:1012B0004F4B2000436F6E76657274696E672E2EF9
:1012C0002E202000000048C20000FA420000C84161
:1012D0004E6F204465766963652020202020200021
:1012E0005265736574204661696C65642020200036
:1012F000000C01402A2A2A20414C41524D202A2A22
:101300002A2020000821022003F077FA96FBF8F249
:1013100001230921022003F04FFA3CA20A210220F6
:1013200003F06BFA3AA201215FF0030003F065FAC3
:101330003DE000F09FF8002222E784F8059000F0DD
:1013400091F8012135A2084603F057FAAFF23C129A
:101350000121022003F051FA022306211846009AC7
:1013600003F02AFAAFF2D8020821022003F045FA6E
:1013700096FBF8F201230921022003F01DFA0A214D
:1013800022A20220D2E72948854207D128A20121C2
:10139000032003F032FA84F8059008E028A2012126
:1013A000032003F02AFA84F8059000F05BF8E76167
:1013B00062E684F806A0E660E0684FF48075301AB3
:1013C000B0FBFBF0C00712D000F04CF80122294618
:1013D0001F4800F03CFF1FA20C21032003F00DFA70
:1013E0001DA20121042003F008FA266244E600F061
:1013F00041F80022EBE7A57100F034F80AA20C21B5
:10140000032003F0FAF9AFF28812EAE72043000064
:10141000546F6F20486967682100000054656D7043
:101420006572617475726520202020000000C6C2BC
:1014300052656164204661696C656420202020004B
:101440004F7574206F662052616E67652020200002
:101450000008014021212100546F6F20427269670A
:101460006874210000224FF40041014800F0EFBEF3
:10147000001001400122D103014800F0E8BE000045
:1014800000100140FEE70000014800F0BBBC000076
:10149000A8000020014800F0B5BC0000D0010020E9
:1014A00030B590F840500124AC40C56B6C600468C6
:1014B00063604368102B036803D099600068C260C2
:1014C00030BD9A600068C16030BD000010B586B0C4
:1014D000002002900E48816941F004018161806919
:1014E0000C4C00F0040004900420009011200190A6
:1014F000032003906946204600F0B4FD0122042138
:10150000204600F0A4FE0A2000F08CFD06B010BDBD
:1015100000100240000801402DE9F0410025154F60
:101520002C46012600220421384600F090FE0520BA
:1015300004F024FB01220421384600F088FE082034
:1015400004F01CFB0421384600F07CFE01284FF01B
:101550002F0008D004F012FB641CE4B2082CE1D385
:101560002846BDE8F08104F009FB06FA04F02843A0
:10157000C5B2F1E70008014010B500F01BF8A8B1B2
:10158000CC2000F055F8BE2000F052F8FFF7C4FF61
:101590000446FFF7C1FF44EA002000B2FEF7BAFE9E
:1015A000BDE810406FF00301FEF7A8BE004810BD73
:1015B0000000C6C270B51D4D00240122042128463A
:1015C00000F045FE012004F0D9FA0421284600F07D
:1015D00039FE00220421284600F039FE012004F0E3
:1015E000CDFA0421284600F02DFE002204212846D1
:1015F00000F02DFE4FF4FA7004F0C0FA012204212D
:10160000284600F024FE462004F0B8FA04212846BB
:1016100000F018FE00B901244FF4D77004F0AEFAC0
:101620000421284600F00EFE204670BD000801404F
:1016300070B5154E0546002425FA04F010F0010F90
:101640004FF000024FF0040130460BD000F0FFFDD8
:10165000052004F093FA01220421304600F0F7FD42
:1016600037200AE000F0F3FD3C2004F087FA012265
:101670000421304600F0EBFD0A2004F07FFA641CE0
:10168000E4B2082CD8D370BD0008014070470000B8
:1016900070B5044688B0C068FEF777FE05460E4672
:1016A0006068FEF772FECDE906566289237A02ADC4
:1016B000059285E80B0060780090237809A28021CC
:1016C000174803F07FFC00280ADD802808D208B004
:1016D00082B2BDE8704064231149124802F0EBB8B1
:1016E00008B070BD24444154412C48523A25642C22
:1016F00053504F323A25642C54454D503A252E31E3
:10170000662C4C494748543A25642C4144433A25B9
:10171000642C564F4C543A252E32662A0D0A00008E
:10172000040700201402002070B502F091FB174C52
:10173000207002F02DFC607000F08EFD144D064606
:101740006868301AB0F5FA6F10D3FFF733FF58B15D
:10175000FFF712FF0F49884206D80F49884203DC81
:10176000286060606E6003E02868FAE728686060BF
:1017700000F01AF8207200F04DF8608100F060F877
:10178000E060BDE870400148FFF782BFF40600202A
:1017900068000020000048C20000FA4270470120A3
:1017A00000F054BC72B6FEE770B500254FEA0504A0
:1017B00000F030F80544012000F034FC641CE4B271
:1017C0000A2CF5D30A20B5FBF0F082B2002040F6D7
:1017D000EA318A420FD20D4C412A01D820460AE054
:1017E000A2F6EA325042FEF795FD0949FEF748FDA0
:1017F0002146FEF713FD4FF07C51FEF7B7FCFEF7D4
:10180000B0FDC0B2642800D9642070BD0000C84299
:1018100000903A450021084A084600BF32F81030CF
:10182000401C1944C0B289B20A28F7D30A20B1FB80
:10183000F0F0024908807047200600206000002078
:1018400010B5FFF7E7FFFEF76EFD6FF00B01FEF737
:1018500055FDBDE810400149FEF7E0BC333353406D
:101860000A220249024800F0D7B9000020060020F1
:101870007800002070470000F8B50024009490F82C
:1018800024202546012A12D0012280F824204A680B
:101890001F23072A0DD20668776B521E02EB8202C5
:1018A00093409F430B6893401F43776319E00220E6
:1018B000F8BD06680D2A0AD2376BD21F02EB8202EE
:1018C00093409F430B6893401F43376309E0F76AD7
:1018D0000D3A02EB820293409F430B6893401F43F3
:1018E000F7620A68072306680A2A0AD3F7680A3AE1
:1018F00002EB420293409F438B6893401F43F76083
:1019000008E0376902EB420293409F438B689340A3
:101910001F4337610A68102A01D0112A20D1124BC7
:1019200002689A4217D193681B0219D4936843F452
:10193000000393600968102912D10C490C4A096808
:10194000B1FBF2F101EB8101490000E0491E009179
:101950000029FBD104E0816A41F020018162012469
:1019600080F824502046F8BD002401400C000020DF
:1019700040420F0070477047704770B504460068DA
:1019800006684568A90625D5B10723D5A16AC90609
:1019900003D4A16A41F40071A1628168C1F342419C
:1019A000072910D1217B71B9416821F020014160E4
:1019B000A06A20F48070A062A06AC00403D4A06A68
:1019C00040F00100A0622046FFF7D4FF21686FF0CD
:1019D0001200086028062ED570072CD5A06AC00614
:1019E00003D4A06A40F40050A06220688168C1F36B
:1019F0000231072909D04168490515D48168C1F32E
:101A00004241072910D1217B71B9416821F0800141
:101A10004160A06A20F48050A062A06AC00503D48F
:101A2000A06A40F00100A0622046FFF723FF216872
:101A30006FF00C00086068060CD5F0070AD0A06AA9
:101A400040F48030A062204600F094F821686FF0E6
:101A50000100086070BD00002DE9F0414FF0000763
:101A600004003D467ED0A06A002628B9E66284F8CC
:101A70002460204600F080F82046FEF7ABFFA16A04
:101A8000C90600D420B1A06A40F01000A06269E04D
:101A9000A16A21F4885141F00201A1626268E16902
:101AA000237B0A4347EA43010A43A1684FF4807746
:101AB000B94209D0012907D05FF0000194F814C0A1
:101AC000BCF1010F02D00AE03946F7E7F3B1A36A8F
:101AD00043F02003A362E36A43F00103E362236857
:101AE000D3F804C02CF4694C4CEA010CC3F804C0D0
:101AF00021688B68DFF870C003EA0C0313438B6026
:101B0000A168B9420BD0012909D00CE0DFF85CC014
:101B1000A3690CEB43330B4343F40061DFE7218AF5
:101B20000D05A5F580152168CB6A23F470032B43BE
:101B3000CB62216889680E4B1940914208D1E66258
:101B4000A16A21F0020141F00101A162BDE8F0812A
:101B5000A06A20F0020040F01000A062E06A40F0AD
:101B60000100E0620120F1E7FDF7E1FF00E0FFFF87
:101B7000FE0E1FFF7047000070B586B000250646B8
:101B8000009501950295039500681E49884236D15B
:101B90001D49886940F400708861886900F400700C
:101BA0000490886940F0040088618869694600F003
:101BB000040004901020009003200190134800F0CE
:101BC00051FA144C1248C4E900058020C4E90250BF
:101BD00040002061800060612020C4E906052046A5
:101BE00000F0BAF908B1FFF7DDFD346200221146BA
:101BF0001220666200F04EFE122000F03DFE06B09C
:101C000070BD0000002401400010024000080140A7
:101C100008000240A80000202DE9F047894604464C
:101C20003B4900683B4F0E1D9046884201D0B842A8
:101C300007D1306810F4702F03D001252846BDE885
:101C4000F08794F8240001280CD0012084F82400A7
:101C50002046FEF723FF05004FF0000004D084F873
:101C60002400EBE70220EAE7A16A40F60162914313
:101C700041F48071A1622168B94218D1326812F42E
:101C8000702F14D0A16A41F48011A1623168490516
:101C900005D5A16A21F4005141F48051A162A16AE5
:101CA000C9040AD5E16A21F00601E16206E0A26AF0
:101CB00022F48012A2624968E9E7E06284F8240015
:101CC000216A15488862216A1448C862216A14484A
:101CD000086321686FF0020008602068816841F4A1
:101CE00080718160216843464A464C31206A00F089
:101CF00061F920688168C1F342410729816803D0F6
:101D000041F48011816099E741F4A001FAE70000F5
:101D100000240140002801402B0A0008930A000813
:101D2000790A000810B590F821100022022905D088
:101D30000421816380F82020012010BD01680B6818
:101D400023F00E030B6001680B6823F001030B60A6
:101D500090F84030C46B012101FA03F3636080F80E
:101D6000211080F82020104610BD000010B590F81A
:101D700021100024022903D00421816301243DE0C5
:101D800001680A6822F00E020A6001680A6822F0FF
:101D900001020A601A4A0168914201D1012121E041
:101DA000174A1432914201D110211BE0144A283203
:101DB000914201D1891515E0114A3C32914201D17D
:101DC00089140FE00E4A5032914202D14FF4803113
:101DD00008E00B4A6432914202D14FF4801101E0D5
:101DE0004FF08071064A083A5160012180F82110B5
:101DF000002180F82010416B01B18847204610BDBA
:101E0000080002402DE9F05FC16B0C6801680B68A7
:101E1000D0F840C0042202FA0CF2494DDFF824A1A8
:101E2000494E4A4FDFF828B1DFF828E122422CD092
:101E30005A072AD50A68920603D40A6822F00402D7
:101E40000A600168A94201D1042219E0514501D17B
:101E5000402215E0B14202D14FF4806210E0B94255
:101E600002D14FF480420BE0594502D14FF4802259
:101E700006E0714502D14FF4800201E04FF080622C
:101E80002F4908394A60C16A3BE04FF0020808FA5E
:101E90000CF818EA040F4FF000094FF0010235D09A
:101EA0005FEA837832D50B689B0605D40B6823F074
:101EB0000A030B6080F821200168A94201D10222A7
:101EC00019E0514501D1202215E0B14202D14FF471
:101ED000007210E0B94202D14FF400520BE05945B4
:101EE00002D14FF4003206E0714502D14FF40012E6
:101EF00001E04FF00072124908394A6080F82090E2
:101F0000816A00291AD0BDE8F05F0847082505FA64
:101F10000CF5254212D01B0710D50B6823F00E03D9
:101F20000B6090F84010C36B02FA01F159608263B4
:101F300080F8212080F82090016BE2E7BDE8F09F57
:101F4000080002401C0002403000024044000240F1
:101F5000580002406C00024030B528B308C813494D
:101F600014221944B1FBF2F18900C1631049816365
:101F7000022141771A6843F6F0718A43D0E90014D0
:101F80002143D0E902452C4321430469214344699C
:101F900021438469214311431960002141630122D7
:101FA00042770177084630BD012030BDF8FFFDBF04
:101FB0000000024070B5044690F82000002501287A
:101FC0000CD0012084F8200094F821600020012E1C
:101FD00006D084F820000225284670BD022070BD7E
:101FE000022684F82160A0632068066826F00106B6
:101FF00006602046FFF754FAE06A0028206801686E
:1020000002D041F00E0106E021F0040101602068D9
:10201000016841F00A0101602068016841F0010196
:102020000160D9E770B5044600F016F90546601C5A
:1020300002D004480078044400F00EF9401BA0428E
:10204000FAD370BD0000002070470000044910B5AD
:102050000A68024202D00860FFF7F6FF10BD0000D8
:10206000140401402DE9F84FDFF8B8910024A9F1DC
:10207000040B23460F2709F1040AABF1040EC9E053
:102080000125A5402A40AA427DD1674ED1F804C05F
:10209000ACEB0608B44532D014DCBCF1030F3AD0E7
:1020A00009DCBCF1000F2AD0BCF1010F1CD0BCF13F
:1020B000020F31D11DE0BCF1110F17D0BCF1120F8E
:1020C0002AD119E0B8F5881F19D006DCB8F5803F91
:1020D00015D0B8F5801F1FD111E0B8F5001F0ED044
:1020E000B8F5041F18D10AE0CB6815E0CB681B1DBA
:1020F00012E0CB6808330FE0CB680C330CE08B6840
:102100002BB1012B4FF0080303D0456104E00423F9
:1021100002E0056100E00023FF2A01D8064601E045
:1021200000F104064FEA840501D9A5F12005D6F88F
:10213000008007FA05FC28EA0C0803FA05F548EACE
:102140000508C6F800804D68ED0062D5374DAE69D0
:1021500046F00106AE61AD6924F0030605F0010505
:102160000095334D06EB050CDCF80850A607360F3A
:1021700007FA06F825EA0805DFF8B880404503D1DC
:102180004FF0000817E044E0DFF8AC80404502D192
:102190004FF001080FE0DFF8A480404502D14FF076
:1021A000020808E0DFF89880404502D14FF00308AC
:1021B00001E04FF0040808FA06F848EA0508CCF8F0
:1021C00008804D68D9F80060ED024D4601D51643F0
:1021D00000E096432E604D68DAF80060AD02554687
:1021E00001D5164300E096432E604D68DBF8006091
:1021F000AD035D4601D5164300E096432E604D6861
:10220000DEF80060ED03754601D5164300E0964305
:102210002E60641C0D682A46E5407FF431AFBDE8AE
:10222000F88F000008040140000011100010024067
:102230000000014000080140000C01400010014076
:10224000001401408068084000D0012070470AB1A6
:10225000016170470904FBE701488068704700008E
:102260000000002070B5040025D094F83D00002542
:1022700020B984F83C50204600F076FA242084F8F7
:102280003D002068016821F00101016020680168BB
:1022900041F4004101602068016821F400410160BF
:1022A00000F036FC4D4A6168914201D84C4900E08B
:1022B0004C49884201D2012070BD4B492368B0FBD4
:1022C000F1F15E6826F03F060E435E60636893425C
:1022D00006D94FF4967359434FF47A73B1FBF3F177
:1022E0002368491C1E6A26F03F0631431962616863
:1022F000914210D84900401EB0FBF1F2521CC2F3CB
:102300000B02042A01D2042022E0B0FBF1F0401CB1
:10231000C0F30B001CE0A268F2B301EBC10303EBB6
:102320000116431EB3FBF6F35B1C43F480431B050D
:1023300049D092B301EBC10202EB0111401EB0FB88
:10234000F1F0401CC0F30B0040F4804040F400402A
:102350002168CA694CF6FF739A431043C861D4E9F7
:10236000071001432068026822F0C0021143016097
:10237000D4E9030101432068826848F2FF339A439D
:1023800011438160D4E9050108432168CA6822F03D
:10239000FF021043C86001E00EE016E0206801680B
:1023A00041F0010101602564202084F83D0025638F
:1023B00084F83E50002070BD01EB4106431EB3FB84
:1023C000F6F35B1CB3E70120C2E701EB4101401EBD
:1023D000B0FBF1F0401CC0F30B00B7E7A086010092
:1023E00080841E0000093D0040420F002DE9F84F97
:1023F0000025DDF82890984617468A460446009541
:10240000FFF72AFF064694F83D0020287AD11923C9
:10241000012286492046009601F0BCFB0028F5D138
:1024200094F83C0001286DD0012084F83C0020681D
:102430000168C90703D1016841F00101016020680A
:10244000016821F400610160222084F83D00102021
:1024500084F83E0025646762A4F82A80608D208598
:102460007348E06233464A465146204601F0A2FADC
:1024700000287CD1208DDFF8BC81202768B101289D
:1024800014D00228206801681ED041F480610160E8
:102490002068416980690090BBE0206841698169DA
:1024A0000091016841F400710160B2E020680168A8
:1024B00021F48061016072B62068416981690091F0
:1024C000016841F400710AE041F40061016072B6F4
:1024D0002068416981690091016821F4806101608F
:1024E00062B696E0032865D801280CD002284B4636
:1024F0004FF000024146204600960BD001F04AFB07
:10250000A8BB0CE090E032464946204601F0E8FBCB
:1025100068BB71E001F03EFB48BB72B633E0206857
:10252000016821F48061016072B620680069616A07
:102530000870606A401C6062208D401E2085608D9E
:10254000401E60853C4846F2A8110068B0FBF1F0DF
:10255000C0EBC00000EB80000090401E009007D050
:1025600020684069C04340070DD50098F5E727E093
:1025700044F8305F6773A573206940F02000206144
:1025800062B625731CE02068016841F400710160A7
:1025900020680069616A0870606A401C6062218D71
:1025A000491E2185618D491E618562B621680969D0
:1025B000017025E032464946204601F091FB10B1FA
:1025C0000120BDE8F88F20680069616A0870606AC0
:1025D000401C6062208D401E81B22185608D401EAE
:1025E000608520684269D243520712D4032903D17F
:1025F000016821F48061016020680069616A0870E7
:10260000606A401C6062208D401E2085608D401EE7
:102610006085208D00287FF465AF84F83D7084F8D4
:102620003E5084F83C50CCE70220CAE7020010007C
:102630000000FFFF040001000C0000202DE9F84F0E
:102640001F4690468A460446DDF82890FFF704FEB0
:10265000054694F83D0020287FD1192301224049E6
:102660002046009501F096FA002876D194F83C00B7
:10267000012872D0012084F83C0020680168C90755
:1026800003D1016841F0010101602068016821F473
:1026900000610160212084F83D00102084F83E0094
:1026A00000262664C4F824806785608D20852D4827
:1026B000E0622B464A465146204601F0F1F990B9B6
:1026C000206841698069009036E02A4649462046E4
:1026D00001F03EFB50B1206C042804D12068016851
:1026E00041F4007101600120BDE8F88F606A216843
:1026F00000780861606A401C6062618D491E6185D6
:10270000218D491E89B2218522685369DB435B070D
:102710000BD451B100781061606A401C6062608D1A
:10272000401E6085208D401E20852A464946204651
:1027300001F004FA0028CED1208D0028C5D154F82C
:102740003D0B016841F400710160202004F81E096E
:10275000E67766770020C7E7FFE70220C4E70000BE
:10276000020010000000FFFF10B586B000210091AC
:102770000191029103910068104988421BD1104CCD
:10278000A06940F00800A061A069694600F0080057
:1027900004904FF4406000901220019003200390B9
:1027A0000848FFF75FFCE06940F48000E061E06901
:1027B00000F48000049006B010BD000000580040F6
:1027C00000100240000C0140024881680278114468
:1027D0008160704700000020074810B5016841F093
:1027E00010010160032000F075F80F2000F006F8DA
:1027F00000F024F8002010BD0020024070B50D4DFF
:1028000004464FF47A712878B1FBF0F00A49096860
:10281000B1FBF0F000F052FB48B9102C07D20022B7
:102820002146501E00F036F800206C6070BD01207B
:1028300070BD0000000000200C0000200C4808B50E
:10284000816941F001018161816901F0010100911B
:10285000C16941F08051C161C06900F080500090B1
:102860000448416821F0E06141F00071416008BD19
:102870000010024000000140002809DB00F01F02A8
:10288000012191404009800000F1E020C0F80011D2
:1028900070470000F0B40E4B1B680C46C3F30223D4
:1028A000C3F10705042D00D90425191D072901D2FC
:1028B000002300E0DB1E012606FA05F1491E214037
:1028C00099409E40761E16403143F0BC02F0A7BBF3
:1028D0000CED00E0064900F0070208684FF6FF0320
:1028E000184040EA0220034A104308607047000085
:1028F0000CED00E00000FA052DE9F84305460078EC
:10290000354CC00754D0E0690026C00008D4E06907
:1029100040F08050E061E069012600F080500090B6
:102920002E480168C90512D40168804641F48071BF
:102930000160FFF791FC074605E000BFFFF78CFC44
:10294000C01B642823D8D8F80000C005F6D5206A3B
:1029500010F4407021D0A98801F4407181421CD04C
:10296000206A1F49012220F440700A6000220A6098
:102970002062C00711D0FFF76FFC074641F288388C
:1029800008E000BFFFF768FCC11B414502D90320E6
:10299000BDE8F883206A8007F4D5206A696820F4CE
:1029A0004070084320621EB1E06920F08050E06171
:1029B0002878800705D56068A96820F4404008435E
:1029C00060602878C00605D56068E96820F480005A
:1029D000084360600020DBE7001002400070004008
:1029E000400442422DE9F0470F46050061D0434EB6
:1029F000306800F00700B84209D2306820F00700C4
:102A000038433060306800F00700B84251D1286880
:102A10003B4C810712D5400703D5606840F4E06065
:102A200060602878000703D5606840F460506060FB
:102A30006068A96820F0F000084360602878C0074B
:102A400028D06868012810D02168022810D0890792
:102A500000292EDA616821F0030101436160FFF76C
:102A6000FBFB804641F288390DE021688903EFE7DE
:102A70008901EDE7FFF7F0FBA0EB0801494502D91A
:102A80000320BDE8F0876068696800F00C00B0EBD7
:102A9000810FEFD1306800F00700B8420BD93068E1
:102AA00020F0070038433060306800F00700B8427B
:102AB00001D00120E5E72878400705D56068E9687E
:102AC00020F4E060084360602878000706D560685D
:102AD000296920F4605040EAC100606000F038F8D5
:102AE0006168084AC1F30311515CC8400649086097
:102AF00006480068FFF782FE0020C2E7002002407F
:102B0000001002403E6700080C0000200400002076
:102B10000448054900684968044AC1F30221515C30
:102B2000C84070470C000020001002404E670008AB
:102B30000448054900684968044AC1F3C221515C50
:102B4000C84070470C000020001002404E6700088B
:102B50000E4A51680E4801F00C03042B11D0082BCB
:102B60000FD10C48C1F38343C903C05C0AD5516837
:102B7000084AC1F34041921E515C054A5043B0FBE4
:102B8000F1F07047044948437047000000100240CC
:102B900000127A002E67000800093D002DE9F84F69
:102BA000040070D02078C04DC00749D06868C0F3D9
:102BB0008100012807D06868C0F38100022809D18C
:102BC0006868C00306D52868800339D56068002886
:102BD000E7D035E06068B0F5803F0BD010B1B0F5BC
:102BE000A02F11D0286820F480302860286820F4B5
:102BF000802002E0286840F480302860606890B14E
:102C0000FFF72AFB06460AE0286840F48020286087
:102C1000F0E700BFFFF720FB801B642873D828680B
:102C20008003F7D50CE0FFF717FB064605E000BF71
:102C3000FFF712FB801B6428F0D828688003F7D4C4
:102C400020789A4E80074FF001094FF0000839D5DF
:102C5000686810F00C0F07D06868C0F38100022884
:102C600009D16868C00306D42868800714D5206994
:102C7000012808D110E02069B0B1C6F80090FFF734
:102C8000EBFA074605E00AE1FFF7E6FAC01B022867
:102C9000C4D828688007F7D52868616920F0F80053
:102CA00040EAC10028600DE0C6F80080FFF7D4FAC2
:102CB000074604E0FFF7D0FAC01B022823D8286893
:102CC0008007F7D4207800072CD57948A169D9B1BD
:102CD000C0F80090FFF7C0FA074604E0FFF7BCFA1F
:102CE000C01B02280FD8686A8007F7D571484FF4D7
:102CF000FA510068B0FBF1F0009000BF0098411E4F
:102D00000091FAD20EE080E0C0F80080FFF7A4FA4C
:102D1000074604E0FFF7A0FAC01B022875D8686ACE
:102D20008007F7D42078400760D5E8690027C00005
:102D300008D4E86940F08050E861E869012700F0B4
:102D4000805000905C480168C90513D4016883462F
:102D500041F480710160FFF77FFA824606E000BF10
:102D6000FFF77AFAA0EB0A0064284ED8DBF80000DF
:102D7000C005F5D5E06801280AD008B1052813D0B0
:102D8000286A20F001002862286A20F0040002E08E
:102D9000286A40F001002862E06841F2883B98B15F
:102DA000FFF75AFA82460BE0286A40F004002862D6
:102DB000EEE700BFFFF750FAA0EB0A0159455AD8D9
:102DC000286A8007F6D50CE0FFF746FA824605E050
:102DD000FFF742FAA0EB0A0159454CD8286A800750
:102DE000F6D41FB1E86920F08050E861E06988B34B
:102DF0006968C1F38101022944D00228C6F86080C5
:102E000004D0FFF729FA044638E034E0FFF724FA4B
:102E1000074604E0FFF720FAC01B02282BD82868D9
:102E20008001F7D4206AB0F5803F05D16868A168B9
:102E300020F4003008436860D4E908010843696859
:102E400021F4741108436860C6F86090FFF704FA33
:102E5000044606E025E000BFFFF7FEF9001B02284C
:102E600009D828688001F7D51BE000BFFFF7F4F907
:102E7000001B022802D90320BDE8F88F28688001D2
:102E8000F4D40EE00128F7D06868226A00F480319B
:102E9000914204D1616A00F47010884201D001208F
:102EA000EAE70020E8E7000000100240000042428C
:102EB000800442420C0000200070004010B5401E0B
:102EC000B0F1807F01D3012010BD4FF0E02460619C
:102ED0000F21601702F0A3F80020A06107202061F5
:102EE000002010BD70B590F83C20012A26D00124A6
:102EF00080F83C40022280F83D2003685A689D68B3
:102F000022F070060A6832435A600D4B02689A42FA
:102F100008D0B2F1804F05D00A4B9A4202D00A4B3A
:102F20009A4204D1496825F080031943916080F8E2
:102F30003D40002180F83C10084670BD022070BD65
:102F4000002C0140000400400008004010B50400BF
:102F500003D094F83D0010B107E0012010BD00201F
:102F600084F83C00204600F01FF8022084F83D0061
:102F7000211D206801F052FD012084F8460084F8EC
:102F80003E0084F83F0084F8400084F8410084F853
:102F9000420084F8430084F8440084F8450084F833
:102FA0003D00002010BD000038B50546194A0168F3
:102FB0001948914208D1816941F4006181618069B9
:102FC00000F40060009038BD144A9142FBD1C16901
:102FD00041F00201C161C069124C00F00200009092
:102FE0000F4820601020606000208021C4E90201A9
:102FF000490021618900C4E905108800E06120468C
:10300000FEF7AAFF08B1FEF7CDFB6C62AC63656208
:1030100038BD0000002C01400010024000040040B8
:103020006C000240D001002090F83D10012901D031
:1030300001207047022180F83D1000680B4988424A
:1030400008D0B0F1804F05D00949884202D0094923
:10305000884204D1816801F00701062903D0016884
:1030600041F001010160002070470000002C014088
:10307000000400400008004001680A6A41F2111390
:103080001A4207D10A6A9B101A4203D10A6822F039
:1030900001020A60012180F83D100020704770B5E0
:1030A000044690F83C000025012817D0012684F83A
:1030B0003C60022084F83D002068826822F077029C
:1030C00022F47F4282600868502838D00DDC202826
:1030D0004FD005DC90B3102811D14AE0022070BD1A
:1030E000302846D040280AD13BE060282FD07028F5
:1030F0000DD0B0F5805F03D0B0F5005F12D0012590
:1031000084F83D60002084F83C00284670BDCB6800
:10311000D1E90121206801F03FFD2068816841F07C
:10312000770109E0CB68D1E90121206801F034FD85
:103130002068816841F480418160E1E719E0CA6854
:103140004968206801F0DCFD5021206806E0CA686B
:103150004968206801F0E5FD6021206801F026FD46
:10316000CEE7CA684968206801F0CAFD402120689E
:10317000F4E7226801461046F0E7704700B585B0D5
:103180000021009101910291039100680B4988424E
:1031900011D10B48816941F0040181618069694660
:1031A00000F0040004904020009002200190039061
:1031B0000448FEF757FF05B000BD000000040040C2
:1031C000001002400008014070B5044690F83C0031
:1031D00000260D4601280FD0012084F83C006AB17A
:1031E000042A1DD0082A2FD00C2A3FD00126002007
:1031F00084F83C00304670BD022070BD206801F0AC
:10320000DDFC2068816941F00801816120688169E5
:1032100021F004018161206881692A69114311E06C
:10322000206801F0F3FC2068816941F4006181614C
:103230002068816921F480618161206881692A693F
:1032400041EA02218161D2E7206801F00BFD20688C
:10325000C16941F00801C1612068C16921F0040120
:10326000C1612068C1692A69114311E0206801F039
:1032700025FD2068C16941F40061C1612068C16910
:1032800021F48061C1612068C1692A6941EA022193
:10329000C161ACE710B5040003D094F83D0010B153
:1032A00007E0012010BD002084F83C00204600F01B
:1032B0001EF8022084F83D00211D206801F0AEFBBD
:1032C000012084F8460084F83E0084F83F0084F82A
:1032D000400084F8410084F8420084F8430084F8F8
:1032E000440084F8450084F83D00002010BD70477C
:1032F0000349884203D10021014800F0CFB870474C
:1033000088010020704700002DE9F04117460D00AC
:1033100004464FF000060CD0042D11D0082D16D015
:1033200094F84100022819D094F84100012818D0DF
:103330007CE094F83E00022810D094F83E00F5E7B7
:1033400094F83F00022809D094F83F00EEE794F883
:103350004000022802D094F84000E7E70220BDE8D0
:10336000F081002F62D0002B60D04649464ADFF83A
:103370001CC102204DB1042D18D0082D27D084F88F
:1033800041000C2D44D0012679E084F83E00606AAB
:103390008162606A3946C262606AC0F830C02268E1
:1033A000606A3432FEF706FE88BB21E084F83F00F5
:1033B000A06A8162A06A3946C262A06AC0F830C0C1
:1033C0002268A06A3832FEF7F5FD00BB15E084F8EC
:1033D0004000E06A8162E06A3946C262E06AC0F891
:1033E00030C02268E06A3C32FEF7E4FD78B909E0BB
:1033F0002068C16841F400711EE02068C16841F492
:10340000806119E02068C16841F4006114E00DE0BA
:10341000206B8162206B3946C262206BC0F830C0DD
:103420002268206B4032FEF7C5FD08B1012096E707
:103430002068C16841F48051C1600122294620689A
:1034400001F028FB12492068884203D1426C42F403
:10345000004242642068884208D0B0F1804F05D015
:103460000C49884202D00C49884204D1816801F09D
:103470000701062903D0016841F0010101603046CF
:103480006DE70000AF4A00080D4B0008454B0008EF
:10349000002C0140000400400008004070B50D0001
:1034A00004464FF0000607D0042D0CD0082D11D093
:1034B0000C2D16D0012645E02068C16821F400716A
:1034C000C160606A13E02068C16821F48061C16056
:1034D000A06A0CE02068C16821F40061C160E06A64
:1034E00005E02068C16821F48051C160206BFEF7BF
:1034F0003DFC00222946206801F0CCFA174B41F22E
:10350000111120688A10984209D1036A0B4206D132
:10351000036A134203D1436C23F4004343642068DD
:10352000036A0B4206D1016A114203D1016821F0FE
:103530000101016001203DB1042D08D0082D09D002
:1035400084F84100304670BD84F83E00FAE784F804
:103550003F00F7E784F84000F4E70000002C01404A
:1035600070477047F8B5016804460868CA684B6937
:1035700010F00F0F4FF0000559D003F0010602F4D0
:103580009077374365D0C10705D0D10503D5616C6D
:1035900041F001016164410705D5D90703D0616C91
:1035A00041F002016164810705D5D90703D0616C40
:1035B00041F004016164010707D502F020013143A5
:1035C00003D0616C41F008016164616C00293AD05C
:1035D000800604D5900602D5204601F0E3FB206862
:1035E0004069616CC0F38010090700D460B32046C5
:1035F00001F0B1FB20684069400621D520681430F5
:1036000050E8001F21F0400140E80012002AF5D1E7
:10361000E06BA8B16D494163E06BFEF7A7FB0028A2
:1036200011D0E06B416B01B0BDE8F0400847830664
:103630000FD593060DD52046BDE8F84001F0B2BB8A
:103640002046FFF78EFFF8BD2046FFF78AFF65642E
:10365000F8BD266B2023012E7CD1C6067AD5D6066E
:1036600078D508684868009048694FF0020640061F
:1036700040D5E16B086840680004000CE8D0A28DDA
:103680008242E5D9E085886920282DD020680C3059
:1036900050E8001F21F4807140E80012002AF5D1A3
:1036A0002068143050E8001F21F0010140E80012AA
:1036B000002AF5D12068143050E8001F21F04001A5
:1036C00040E80012002AF5D184F8423025632068D2
:1036D0000C3050E8001F21F0100140E80012002AD1
:1036E000F5D1E06BFEF71EFB6663A08DE18D401AFD
:1036F00081B22AE0A08DE18D401A81B2E08D0028D0
:10370000A6D00029A4D022680C3252E8000F20F481
:10371000907042E80007002FF5D12068143050E87F
:10372000002F22F0010240E80027002FF5D184F895
:103730004230256320680C3050E8002F22F0100240
:1037400040E80023002BF5D166632046FFF708FF11
:10375000F8BDFFE705062BD5150629D594F84100DD
:103760002128F5D1A068B0F5805F01D12069B0B102
:10377000206A411C2162216800784860E08C401E6C
:103780000004000CE084E3D12068C16821F08001CE
:10379000C1602068C16841F04001C160D8E7206A7B
:1037A0000088C0F308004860206A801C2062E5E7BA
:1037B0004006CDD55006CBD5CA68204622F040023F
:1037C000CA6084F8413000F0C7F8C1E7474D0008EF
:1037D00070B5040004D094F84100002510B106E053
:1037E000012070BD84F84050204600F023F82420CA
:1037F00084F841002068C16821F40051C16020466E
:1038000001F032FB2068016921F4904101612068D8
:10381000416921F02A0141612068C16841F40051E9
:10382000C1606564202084F8410084F8420065632B
:10383000002070BD30B585B000240094019402943E
:1038400003940068184988422CD11848816941F4D2
:1038500080418161816901F480410491816941F075
:10386000040181618069124D00F0040004904FF45E
:1038700000700090022001900320039069462846C2
:10388000FEF7F0FB2815CDE90004694628460294AE
:10389000FEF7E8FB002211462520FEF7FBFF25205E
:1038A000FEF7EAFF05B030BD0038014000100240CD
:1038B0000008014070472DE9F843044690F84100A4
:1038C000984616460D46202802D00220BDE8F8830F
:1038D00085B17EB100206064212084F84100FEF7AC
:1038E000BBFCA6848146E684A0682027B0F5805FF3
:1038F00002D003E00120E9E7206910B12E4600253F
:103900000EE000260CE08021204601F009FBA8B95A
:10391000C6B116F8010B21684860E08C401EE084B7
:10392000E08C4B464FF00002CDF800800028EAD131
:103930004FF04001204601F0F3FA40B184F84170A5
:103940000320C3E735F8020BC0F30800E3E784F86F
:1039500041700020BAE7000000680349884202D1A4
:1039600002A001F01FBB704700380140554152547E
:1039700031E58F91E98081E5AE8CE688905C720A32
:1039800000000000FEE701684A69D24352050FD4E7
:103990006FF480624A61002140F8301F2022427398
:1039A0008173026942F004020261017301207047D1
:1039B000002070472DE9F84F0446C06A1E46934622
:1039C0000D4621680A6842F480620A60082807D020
:1039D000012805D010F5803F02D0206B112804D1BA
:1039E0002068016841F4807101604FF001195B4665
:1039F000002249462046009600F0CCF84FF40078AB
:103A000040B120680068C00501D5C4F8408003209B
:103A1000BDE8F88F2069DFF884A0B0F5804F0FD0A3
:103A20000620216800EAD51747F0F0000861334608
:103A30005A460AF10601204600F0F4F858BB03E0AC
:103A4000E8B240F001001CE02168E8B208613346AA
:103A50005A465146204600F0E5F8E0B92068416931
:103A600081690091016841F4807101605B46002228
:103A700049462046009600F08DF80028C1D147F055
:103A8000F1002168086133465A465146204600F04D
:103A9000C9F80028BCD00120BAE7000002000100EC
:103AA000F8B50446C06A1E460D461746082807D0DA
:103AB000012805D010F5803F02D0206B122804D1D8
:103AC0002068016841F480710160134600224FF0C4
:103AD00001112046009600F05DF840B120680068B2
:103AE000C00502D54FF4007020640320F8BD2069A2
:103AF000B0F5804F0ED00620216800EAD51040F0C6
:103B0000F000086133463A460B49204600F08AF837
:103B100078B902E005F0FE0000E0E8B22168086133
:103B2000054933463A46891F204600F07BF80028B5
:103B3000DCD00120F8BD00000800010070B5164679
:103B40000D4604461EE02046FFF71DFF08B1012088
:103B500070BD681C16D0FEF77FFB801BA84200D802
:103B600085B920684069C04340070BD5002044F860
:103B7000300F20216173A073216941F02001216180
:103B80002073E4E720684069C0434007DBD400208D
:103B900070BD00002DE9F047984617460D460446D3
:103BA000C1F30746DDF820902AE000BFB8F1FF3FDF
:103BB00026D0FEF751FBA0EB0901414502D8B8F130
:103BC000000F1DD12068012E16D0806925EA000063
:103BD0000004000C12D00020B84211D1002044F89B
:103BE000300F20216173A073216941F02001216110
:103BF00020730120BDE8F0874069E7E70120EBE78B
:103C00002068012E0AD0806925EA00000004000C1B
:103C100006D00020B842C9D00020EBE74069F3E7A6
:103C20000120F7E72DE9F047984616460D46044671
:103C30004FF000094FF0200AC1F3074723E0206846
:103C40004069C043400515D42068016841F4007103
:103C5000016021686FF480604861C4F8309084F896
:103C60003DA084F83E90216C41F00401216484F869
:103C70003C9021E0701C06D0FEF7EEFAA0EB0800A5
:103C8000B04203D816B1012F1FD021E02068012FC8
:103C900015D0806925EA00000004000C18D000BF90
:103CA00044F8309F84F80DA084F80E90216941F00B
:103CB0002001216184F80C900120BDE8F087406963
:103CC00025EA00000004000CEAD12068406901E008
:103CD0002068806925EA00000004000CAFD1ECE701
:103CE0002DE9F041002590460E460446202728E0A5
:103CF0004069C043C0060CD454F8301B6FF010006C
:103D0000486144F810596777A577206A20622577C3
:103D100014E0FEF7A1FAA0EB0800B04200D886B983
:103D200020684069C04340060BD544F8305F677394
:103D3000A573206940F02000206125730120BDE8B3
:103D4000F08120684169C9434906D1D40020F6E7D3
:103D500070B516460D4604461EE02046FFF713FEDA
:103D600008B1012070BD681C16D0FEF775FA801BE3
:103D7000A84200D885B920684069C04300060BD529
:103D8000002044F8300F20216173A073216941F0B5
:103D9000200121612073E4E720684069C0430006E8
:103DA000DBD4002070BD000070B500244FF480719A
:103DB0000B48FEF747FA00B901240A4D4FF40041C1
:103DC0002846FEF73FFA08B944F0020401212846CC
:103DD000FEF738FA08B944F00404204670BD00002C
:103DE000000C01400008014030B585B00020019072
:103DF00003901448816941F004018161816901F0F7
:103E000004010491816941F0080181618069012404
:103E100000F0080004904FF480700090694602940E
:103E20000948FEF71FF9E003084D0090694628464F
:103E3000FEF718F9694628460094FEF713F905B015
:103E400030BD000000100240000C0140000801409D
:103E50002DE9FC41FEF700FA054601A9684600F08D
:103E600085F9BDF80000464C002688B3454A6189B3
:103E7000454B22F81100BDF8042023F81120C82278
:103E8000491CB1FBF2F302FB131161813F4B217816
:103E9000E76933F8112023F81100BA1A3223491CBC
:103EA000B1FBF3F7024403FB1711E2612170617863
:103EB000322901D2491C617011F0FF0109D0B2FB17
:103EC000F1F18AB2678A238A9F4204D9F91A03E082
:103ED00008E00246F6E7002189B2B2F57A7F01D305
:103EE000642903D226720020BDE8FC81E189E9B390
:103EF000B4F80CC08C4540D281423ED99F4201D9D2
:103F0000FB1A00E000239BB2C3EB03135B006427A2
:103F1000B3FBF7F31A4492B291422ED9226AAA1A3D
:103F2000B2F5967F29D919492562E078643141F8C4
:103F30002050401C00F00700E070A078082801D253
:103F4000401CA07001F0CCFDA0F128018C2911D8F3
:103F5000217A491CC9B2217203290CD3217919B1E4
:103F600001EB410108448008207100E005E00320D6
:103F7000207200E026722079B6E7A181E081FAE79D
:103F8000340000205C020020EC0300207C050020AF
:103F90002DE9FC4701A9684600F0E8F8BDF80010DB
:103FA00061B3BDF804204AB33F48038A994200D266
:103FB0000182438A994200D94182838A9A4200D27F
:103FC0008282C38A9A4200D9C282436A0B44436206
:103FD000846AA5188562028B521C1204120C02839B
:103FE00001D0B3FBF2F1478A048A4FF47A76A742F4
:103FF00004D93C1BB14201D3642C02D20020BDE89D
:10400000FC878046402A4CD3B3FBF2F6B5FBF2F2B4
:10401000C38A818A8B4201D95F1A00E0002798F891
:1040200007100D465FB356B34AB31046FCF77BF951
:1040300081462046FCF777F94946FCF7EFF804463D
:104040003046FCF770F906463846FCF76CF9314605
:10405000FCF7E4F82146FCF713F91449FCF7DEF805
:104060001349FCF7D8F81349134A884201DD084682
:1040700002E0904200DA1046FCF773F9C1B2404604
:104080001DB1C5EBC5021144C908C17100214162CF
:104090004FF6FF728162028241828282C182A8F859
:1040A000181098F80700AAE7340000200000C84163
:1040B0000000DC420000C84200007042FEB500F083
:1040C00099F83220FDF7AEFF0321062000F096F8A4
:1040D0004721072000F092F83421092000F08EF8E3
:1040E0000024651E8DF8044002AE012301AAAE2112
:1040F00019480095FEF7A2FA30B901233246AF21E4
:1041000015480095FEF772F94FF4C8752946134813
:10411000FCF721F829461248FCF71DF864211148E4
:10412000FCF719F80F4810218430FCF714F80D48FB
:1041300010219430FCF70FF80B48C46104704470F0
:104140004481C4708470C471047144718471448367
:1041500004720020FEBD0000EC0000205C02002084
:10416000EC0300207C05002034000020FEB506464C
:104170000520871F0D468DF80800012302AAAE21F5
:1041800019480097FEF75AFA002438B9042301AA07
:10419000AF2115480097FEF729F910B134802C8023
:1041A000FEBDBDF80610BDF804004CBA40BA0F4978
:1041B00001F078FC0D4930801031204601F072FC8E
:1041C00028800B484179491C01F007014171817930
:1041D000082901D2491C8171428A018A8A42DFD9A9
:1041E000511A4183FEBD0000EC00002000060020B3
:1041F0003400002040210620AFF300801CB50223CC
:104200008DF804004FF0FF308DF80510009001AAE2
:10421000AE210248FEF712FA1CBD0000EC0000209F
:104220003EB5002411480094019402940E49846024
:10423000016001250573047505614FF46021446038
:10424000C161FDF709FC08B1FDF7ACFA0420CDE926
:104250000005694602940548FDF70EFB002801D0D1
:10426000FDF7A0FA3EBD00000024014078000020C8
:104270000D4808B5416941F00101416140690022E2
:1042800000F00100009011460B20FEF703FB0B200D
:10429000FEF7F2FA002211461020FEF7FBFABDE805
:1042A00008401020FEF7E8BA001002402DE9F04F58
:1042B00085B000244C4800940194029403948169D1
:1042C00041F010018161816901F01001049181695F
:1042D00041F020018161816901F02001049181692F
:1042E00041F004018161816901F004010491816957
:1042F00041F0080181618069DFF8F08000F008007A
:104300004FF400470490002239464046FDF79FFFD6
:10431000DFF8DCA0002206215046FDF798FFDFF809
:10432000D4B0012239465846FDF791FF4FF4807909
:10433000012249465046FDF78AFF0022C021584617
:10434000FDF785FF0226012500970396CDE901546C
:1043500069464046FDF786FE27486946CDE900508C
:1043600050460295FDF77EFE4FF48170CDE90005C1
:10437000CDE9024669465046FDF774FE04204FF031
:104380001108CDE90008CDE9024669465046FDF71F
:1043900069FE00970396CDE9015469465846FDF73A
:1043A00061FE009769465046CDE90145FDF75AFE8A
:1043B000C020CDE9000869465846CDE90245FDF721
:1043C00051FECDF8009069465846CDE90145FDF70C
:1043D00049FE002211460620FEF75CFA0620FEF791
:1043E0004BFA05B0BDE8F08F00100240001001400C
:1043F00000080140000C0140000021100D4810B5DC
:104400000B4901600C49416000214FF480428160FA
:10441000C0E9031241618161C1610162FDF722FFC0
:10442000002803D0BDE81040FDF7BCB910BD000066
:1044300000580040EC000020A086010010B586B0B6
:10444000002417480094019402940394049413499F
:10445000059401604721C0E901144FF6FF71C0E9DE
:10446000031444618461FEF771FD08B1FDF79AF908
:104470004FF48050009069460948FEF710FE08B1DD
:10448000FDF790F9049404A905480594FEF72AFD68
:10449000002801D0FDF786F906B010BD002C0140C0
:1044A0004001002010B58EB00024079408940994B0
:1044B0000A940B941C2168460C94FBF74CFE1D4893
:1044C0001B49C0E900145921C0E90241046184611B
:1044D000FEF73CFD08B1FDF765F94FF480500790F9
:1044E00007A91448FEF7DBFD08B1FDF75BF9114899
:1044F000FEF7D0FE08B1FDF755F90B940BA90D4856
:104500000C94FEF7EFFC08B1FDF74CF96020CDE903
:10451000000402940022694606480494FEF754FE03
:1045200008B1FDF73FF90348FEF728FE0EB010BDB5
:1045300000040040880100200C4810B50A490160C1
:104540004FF4E1314160002181600C22C160C0E97B
:1045500004128161C161FFF73BF9002803D0BDE877
:104560001040FDF71FB910BD0038014014020020B3
:10457000FEE7FEE770B500240021204600F0D7F8E2
:104580000025002000F05DF96D1CEDB2802DF8D300
:10459000641CE4B2082CEFD370BD000010B5FFF727
:1045A00085FE064C012240212046FDF750FE2046A4
:1045B0000122BDE810408021FDF749BE000C0140FA
:1045C0002DE9F0410024124E0746802525FA04F219
:1045D0003A4080213046FDF73AFE01224021304624
:1045E000FDF735FE002240213046FDF730FE641C09
:1045F000E4B2082CEAD3012240213046FDF727FE21
:104600003046BDE8F04100224021FDF720BE000009
:10461000000C014010B50B4C012280212046FDF713
:1046200016FE012240212046FDF711FE00228021C6
:104630002046FDF70CFE20460022BDE81040402138
:10464000FDF705BE000C014010B5094C0022802189
:104650002046FDF7FCFD012240212046FDF7F7FD35
:1046600020460122BDE810408021FDF7F0BD00008A
:10467000000C014010B500204FF47A720021491C53
:104680009142FCD3401C9042F8D3FFF787FFAE2045
:1046900000F0C6F8D52000F0C3F8802000F0C0F884
:1046A000A82000F0BDF83F2000F0BAF8D32000F0B9
:1046B000B7F8002000F0B4F8402000F0B1F8A120D5
:1046C00000F0AEF8C82000F0ABF8DA2000F0A8F84F
:1046D000122000F0A5F8812000F0A2F8CF2000F011
:1046E0009FF8D92000F09CF8F12000F099F8DB2029
:1046F00000F096F8302000F093F8A42000F090F835
:10470000A62000F08DF88D2000F08AF8142000F02B
:1047100087F8AF2000F084F8BDE81040FFF72ABF0B
:104720000246012000E05043491EFCD2704710B5FC
:104730000C4640F0B00000F073F8102040EA14106E
:1047400000F06EF804F00F00BDE8104000F068B80B
:104750002DE9F0410746CE004000083E801E154678
:104760004FF0FF38F1B2C0B2FFF7E1FF114800246B
:1047700000EB05152819A0F5805090F8000E00F008
:1047800060F8641CE4B2082CF4D308EB4700F1B2E3
:10479000C0B2FFF7CCFF00242819A0F5805090F894
:1047A000080E00F04EF8641CE4B2082CF4D3BDE807
:1047B000F0810000566700082DE9F04700241D46EF
:1047C0001646884681460A2713E0291B0A20491EFF
:1047D000FFF7A6FFB6FBF0F0B0FBF7F107FB110205
:1047E00008EB0400C1B248463032FFF7B1FF641C49
:1047F000E4B2AC42E9D3BDE8F0872DE9F0411546BB
:104800000E460746002406E03019C1B23846FFF7CD
:104810009FFF641CE4B22A5D002AF5D1BDE8F08157
:1048200010B50446FFF7F6FE7820FFF7C9FE00201A
:10483000FFF7C6FE2046FFF7C3FEBDE81040FFF7B6
:1048400003BF10B50446FFF7E5FE7820FFF7B8FE7A
:104850004020FFF7B5FE2046FFF7B2FEBDE810404E
:10486000FFF7F2BE704770B50024254629460022A6
:10487000204600F005F8641CE4B2032CF6D370BDAA
:104880002DE9F05F0E460546032800D302254FF0C0
:104890007E50824201DD024603E012F1FF4F00D359
:1048A00000221746DFF8E890C6F30720FBF73BFD30
:1048B000DFF8E0B05946FBF7E3FC494601F098F910
:1048C0003946FBF7ABFC5946FBF7A8FC4FF07C5A86
:1048D0005146FBF74BFCFBF744FDC4B2F0B2FBF7CB
:1048E00022FD5946FBF7CCFC494601F081F93946D7
:1048F000FBF794FC5946FBF791FC5146FBF736FC5D
:10490000FBF72FFD00F0FF08C6F30740FBF70BFD98
:104910005946FBF7B5FC494601F06AF93946FBF701
:104920007DFC5946FBF77AFC5146FBF71FFCFBF771
:1049300018FDC6B21848002105EB4502012700EB1F
:10494000021201E008290FD2C1F1070307FA03F3AD
:104950003846234016E000BF22F81130491CC9B286
:104960001829EFD3BDE8F09F102906D2C1F10F033B
:1049700000FA03F303EA080304E0C1F1170300FAA5
:1049800003F333400BB14823E6E71223E4E70000CA
:10499000CDCC0C4000007F43340600207047FDF76B
:1049A00013BF30B593B028216846FBF7D4FB142120
:1049B0000AA8FBF7D0FB002501200F951095119553
:1049C000010412958DE8230004904FF4E010CDE926
:1049D0000810022407946846FEF7E0F808B172B6A2
:1049E000FEE70AA90F2081E831004FF48060CDE98D
:1049F0000D0502210AA8FDF7F5FF08B172B6FEE722
:104A00004FF4004011900F940FA8FDF775FF002898
:104A100001D072B6FEE713B030BD7047F0B5026842
:104A2000194B1A4C1A4D4FF08047984205D0B842A6
:104A300003D0A04201D0A84203D122F070064A68F8
:104A40003243984205D0B84203D0A04201D0A842D8
:104A500003D122F44074CA6822434C6922F08002D8
:104A6000224302608A68C2620A688262984201D167
:104A700009690163012141610169C90703D0016925
:104A800021F001010161F0BD002C01400004004053
:104A90000008004010B501F01F030121046A99408D
:104AA0008C430462016A9A401143016210BD10B543
:104AB000446A0121626A824205D121778069F8B98E
:104AC00084F83E101CE0A26A824206D102222277BC
:104AD0008069A8B984F83F1012E0E26A824206D1E8
:104AE00004222277806958B984F8401008E0226BCC
:104AF000824205D108222277806908B984F84110E2
:104B00002046FEF7F5FB0020207710BD10B5446A63
:104B1000616A814201D101200DE0A16A814201D187
:104B2000022008E0E16A814201D1042003E0216B08
:104B3000814201D1082020772046FEF7E3FB0020C8
:104B4000207710BD10B5446A0121626A824203D108
:104B5000217784F83E1019E0A26A824204D1022033
:104B6000207784F83F1011E0E26A824204D10420E9
:104B7000207784F8401009E0226B824204D108209B
:104B8000207784F8411001E084F83D102046FEF7BC
:104B9000F4FA0020207710BD10B5846842EA0322A1
:104BA00024F47F440A432243826010BD826822F0CD
:104BB00070020A4342F007018160704730B5036A12
:104BC000026A22F0010202624268846924F07305DD
:104BD0000C682C4323F002058B682B430A4DA84236
:104BE0000BD123F00805CB6822F440722B434D69AA
:104BF00023F0040315438A692A43426084614968AB
:104C00004163036230BD0000002C014030B5026AF0
:104C1000036A23F010030362436884690D6824F477
:104C2000E64444EA05248D6822F0200242EA051297
:104C30000B4DA8420ED1CD6822F0800242EA051247
:104C40004D6923F4406343EA85038D6922F04002F5
:104C500043EA85034360846149688163026230BD31
:104C6000002C014030B5036A026A22F480720262AD
:104C70004268C46923F4007324F073050C682C4364
:104C80008D6843EA05230C4DA8420ED1CD6823F46C
:104C9000006343EA05234D6922F4405242EA0512BB
:104CA0008D6923F4806342EA05124260C461496859
:104CB000C163036230BD0000002C014030B5046ABE
:104CC000026A22F4805202624268C3690D6823F4CA
:104CD000E64343EA05238D6824F4005444EA05348E
:104CE000064DA84204D14D6922F4804242EA851261
:104CF0004260C36149680164046230BD002C014018
:104D000010B5036A046A24F001040462846924F083
:104D1000F00444EA021423F00A020A4384610262A6
:104D200010BD10B5036A046A24F01004046284699B
:104D300023F0A00324F4704444EA023243EA011150
:104D40008261016210BD10B5406A0021C185C18435
:104D5000FEF707FC10BD01680C3151E8002F22F46A
:104D6000907241E80023002BF5D10168143151E81D
:104D7000002F22F0010241E80023002BF5D1016B46
:104D8000012909D101680C3151E8002F22F01002ED
:104D900041E80023002BF5D1202180F842100021AA
:104DA0000163704708B590F84210222901D0022013
:104DB00008BD82684FF480539A4201D1016921B144
:104DC000816A9A421BD04AB10AE00268816A52683D
:104DD000C2F308020A80816A891C08E0026972B184
:104DE0000268526802F07F020A70816A491C81627F
:104DF000C18D491E0904090CC18503D01BE002685E
:104E00005268F1E70168CA6822F02002CA600168AE
:104E1000CA6822F48072CA6001684A6922F00102FD
:104E20004A61202180F8421000214163026B012A6F
:104E300003D0FEF73FFD002008BD016301680C317F
:104E400051E8002F22F0100241E80023002BF5D199
:104E500001680A68D20602D50A6849680091818D06
:104E6000FEF77EFBE7E7000070B5044600680169C5
:104E7000E26821F44051114301612169A0680843AF
:104E8000616908432168CA6841F20C639A4302438E
:104E9000CA6020684169A26921F4407111434161EF
:104EA0001E492068884202D1FDF742FE01E0FDF76D
:104EB0002FFE00EBC00101EB00126068642180004E
:104EC000B2FBF0F3B3FBF1F36FF018067343B2FBE0
:104ED000F0F5B2FBF0F605EB8305322303EB051585
:104EE000B5FBF1F5B6FBF1F605F0F00505EB06159F
:104EF000B2FBF0F6B2FBF0F0B0FBF1F06FF018028D
:104F0000504306EB800003EB0010B0FBF1F021688A
:104F100000F00F002844886070BD00000038014098
:104F20002DE9F843984617460D460446089E24E0AE
:104F3000701C22D0FDF790F9A0EB0800B0421AD8FF
:104F4000CEB12068C168490717D5802D15D0402DF6
:104F500013D00168C94309070FD4016800254068D0
:104F600000902046FFF7F7FE0820606484F8405068
:104F70000120BDE8F8830320FBE72068006835EADC
:104F8000000004D00020B842D2D00020F1E7012078
:104F9000F9E700000148FEF7E5BA0000140200201E
:104FA000FEE700000FB4054B10B503A9044A0298B0
:104FB00000F0EAF910BC5DF814FB0000A55B0008E6
:104FC000700000200FB47CB50C0009AD01D0611E4B
:104FD00000E00021CDE90001064B6A462946089809
:104FE00000F0D2F9002C02D0009A002111707CBC94
:104FF0005DF814FB8F5A00084100080218BF042016
:105000000A0E18BF40F001004FF07F4232EA010162
:1050100008BF40F00200012808BF052070470907BB
:10502000090E002804DB00F1E02080F8001470472E
:1050300000F00F0000F1E02080F8141D70470021FF
:105040004FF07E50FBF71CB90121FBF757B9FBF776
:105050008DB800210846FBF713B961214FF0E040FD
:10506000FBF74CB96FF05E010807FBF747B900008A
:105070002DE9F04D0D4614464FF07F41B1EB440F42
:105080009EBF4FF0FF312960BDE8F08D4FF000402A
:1050900040EA0421C4F3C750783810F01F024A4B8D
:1050A0004FEA601CC2F120067B44C4F3C750A0F154
:1050B00078004FEA601003EB800053F82C3008BFF3
:1050C000D0E901C612D0D0F804C093402CFA06F7FC
:1050D0003B4387680CFA02FC27FA06F8C06807FA17
:1050E00002F2F0404CEA080C42EA0006A3FB01324F
:1050F000ACFB01C0A6FB016101EB0C068E4234BF84
:105100004FF0010C4FF0000CC1186144BCF1000FCE
:1051100002D0814202D903E0814201D2012000E0A5
:105120000020104400F120024FEA92188006CA0CB9
:1051300040EA42304F03C5F80080FBF7EBF88246A7
:105140003846FBF7F0F86FF01201FBF7D7F8074687
:105150003046FBF7E8F86FF02501FBF7CFF8834600
:1051600039465046FBF702F85946FAF7FFFF00F5BB
:1051700000666FF30B0651463046FBF749F8394697
:10518000FBF746F85946FBF746F81049FBF746F897
:1051900007460F493046FBF741F83946FAF7E6FF74
:1051A00007460C493046FBF739F83946FAF7DEFF77
:1051B00014F0004F08BFBDE8F08DC8F1805180F0B9
:1051C00000402960BDE8F08DF01D0000DB0FC92F05
:1051D00022AAFD290000C92F02E008C8121F08C139
:1051E000002AFAD170477047002001E001C1121F68
:1051F000002AFBD170470000014908607047000099
:10520000740000202DE9FF5F82B00021DDE9043049
:10521000020DDDF840B0034318D044F61050A2F25E
:10522000FF3242431514119801281FD0A5EB0B0043
:10523000401C5FEA000A4FF000064E4FDFF838913D
:10524000B046504615D5CAF1000413E01198012468
:105250004AA3012801D16FEA0B010298119AC0E913
:105260000031C0E9024206B0BDE8F09FCBF100007A
:10527000DFE704460021404A491842EB0450CDE9DB
:10528000001012E0E00707D032463B464046494650
:10529000FBF7D1F98046894632463B46104619460F
:1052A000FBF7C9F906460F466410002CEAD1DDE988
:1052B0000401DDE90023BAF1000F06DAFBF7BBF9C0
:1052C00042464B46FBF7B7F905E0FBF726FA4246A4
:1052D0004B46FBF722FA04460E460022284BFBF70A
:1052E000C9FA03D84FF0FF30014607E00022254BF2
:1052F00020463146FBF7F8F8FBF77EFA102409E068
:10530000002C0ADB0A220023FBF768F8039B3032EB
:105310001A55641E50EA0102F2D1641C039AC4F1CA
:1053200011031444119A012A03D0012208430DD11C
:105330000AE0084304D000204FF0110B119072E7EF
:10534000A3EB0B056D1E0DE05B4504DD4FF0000285
:1053500005F1010504E003DA4FF00002A5F10105B3
:10536000002AECD002981199C0E90231C0E9004549
:1053700079E70000000014400000F03F300000001A
:105380000000F0430000E03F2DE9FF4F95B09A4642
:10539000884606460025EEE1252877D100242746D9
:1053A000F94A0121039400E0044316F8013F203B31
:1053B00001FA03F01042F7D130782A2811D06FF0AB
:1053C0002F033078A0F13002092A16D8039A44F04E
:1053D000020402EB820203EB42021044761C0390AB
:1053E000EFE758F8042B0392002A03DA504244F402
:1053F0000054039044F00204761C30782E2816D115
:1054000016F8010F44F004042A280DD06FF02F0283
:105410003078A0F13003092B09D807EB870302EBA2
:105420004303C718761CF3E758F8047B761C3078E2
:105430006C280FD006DC4C2817D068280DD06A28BD
:1054400014D104E0742810D07A280FD10DE044F470
:1054500000140AE044F4801401E044F4401472782B
:10546000824202D104F58014761C761C30786628BE
:105470000BD013DC582877D009DC002875D04528DC
:10548000F6D04628F4D047281AD193E118E06328D3
:1054900035D0642879D0652812D18BE1702873D07B
:1054A00008DC6728F1D069286FD06E280DD06F28EE
:1054B00006D1ACE073282CD0752874D0782853D04E
:1054C0005246179990476D1C54E1C4F302500228CC
:1054D00009D003280DD0D8F8001004280DD00D6095
:1054E00008F1040846E1D8F80010EA17C1E90052B3
:1054F000F6E7D8F800100D80F2E70D70F0E718F825
:10550000041B8DF8001000208DF80100EB460120EF
:1055100003E058F804BB4FF0FF3061074FF0000183
:1055200002D40DE009F101018946B9420FDA814543
:10553000F8DB1BF809100029F4D108E009F101019A
:1055400089468142FADB1BF809100029F6D103983D
:105550005346A0EB090721463846179A00F080FA17
:10556000284400EB090507E044E008E10DE01BF8E2
:10557000010B524617999047B9F10109F7D25346EA
:1055800021463846179AF2E039E00A21C4F3025264
:105590004FF0000B0091022A06D058F8040BC117F7
:1055A000032A09D00AE023E008F1070020F00702EF
:1055B000F2E80201904605E000B2C117042A01D1C9
:1055C00040B2C117002906DA0A460021404261EBC9
:1055D00002012D2202E0220504D52B228DF80420A1
:1055E000012203E0E20701D02022F7E7914657E0CD
:1055F0000A2100E010214FF0000B00910BE0102178
:105600004FF0000B44F004040827009103E0082049
:105610004FF0000B0090C4F30252022A05D058F854
:10562000040B0021032A08D008E008F1070020F04D
:105630000702F2E80201904603E080B2042A00D19A
:10564000C0B24FF0000922072AD53278702A07D05D
:10565000DDF800C08CF0100C5CEA0B0C05D00EE0FD
:1056600040228DF80420012208E050EA010306D010
:1056700030238DF804308DF8052002229146009BDE
:1056800083F0080353EA0B030AD150EA010201D167
:10569000620705D530228DF804204FF001097F1EE6
:1056A0003278582A04D039A20C920CAA02920BE04C
:1056B0003BA2F9E75B46009AFAF790FE0C9B9B5CD5
:1056C000029A521E0292137050EA0102F2D102981D
:1056D00004A9081A00F1200B600702D524F48034D5
:1056E00000E001275F4502DDA7EB0B0000E0002092
:1056F00000EB0B01009003984944401A0390E0032B
:1057000006D453462146179A039800F0A9F9054498
:10571000002706E001A85246C05D179990476D1C0E
:105720007F1C4F45F6DBE0030CD553462146179A04
:10573000039800F095F9054404E03020524617998B
:1057400090476D1C0099481E00900029F5DC08E088
:105750000298029952460078491C02911799904785
:105760006D1CBBF10001ABF1010BF1DC5BE100F062
:1057700065F90544761C307800287FF40DAE19B029
:105780002846BDE8F08F000009280100303132338F
:10579000343536373839616263646566000000006D
:1057A0003031323334353637383941424344454657
:1057B00000000000600700D4062708F1070020F071
:1057C0000700F0E80223804603F0004C5FEA0C007B
:1057D00001D097A009E0200501D596A005E0E007DB
:1057E00001D095A001E0AFF24C001390307823F087
:1057F000004365280CD006DC452809D046281DD07A
:1058000047287FD13BE0662818D067287AD136E058
:105810000021112F01DB112000E0781CCDE90001EF
:1058200004A90CA8FFF7EEFCDDE90D010C9A4FF07E
:10583000000B07F10109109200914EE04FF000407B
:105840000097CDE9011004A90CA8FFF7DBFCDDE906
:105850000D020C9B0F994FF0000B91461093009294
:1058600011B9791C00EB0109B7EB090003D4C0F1B1
:10587000FF3B07F10109A9EB0700019042E0012F6E
:1058800000DA01270021112F01DD112000E0384648
:10589000CDE9000104A90CA8FFF7B4FCDDE90D0176
:1058A0000C9A00914FF0000BB946109221070FD4CB
:1058B000009A4A4503DA914601E0A9F10109B9F1DC
:1058C000010F05DD109AA9F10101515C3029F4D0D6
:1058D000B84202DA10F1040F03DA0121CDE9011018
:1058E00010E0002803DC8344A9EB000102E0411C26
:1058F000494500DD8946A0EB0B00401C01904FF0AC
:1059000000400290200705D40198484502DB4FF083
:10591000FF30019000208DF84B0002980DF14B07ED
:10592000B0F1004F25D002200C902B200D90029852
:1059300000280CDA404202902D200D9007E00A2149
:105940000298FAF735FD3031029007F8011D0C99E5
:10595000481E0C900029F2DC02980028EFD1791E35
:105960000D980870307800F0200040F0450007F8EE
:10597000020D11A8C01BC01D02901398007800B141
:10598000012000EB0901019801EBE071029801444C
:105990000398401A401E0390E00306D45346214664
:1059A000179A039800F05CF805441398007818B132
:1059B0005246179990476D1CE00323D55346214664
:1059C000179A039800F04CF805441BE0BBF1000F58
:1059D00007DB0098584504DD1098179910F80B0064
:1059E00001E0179930205246904701980BF1010BC6
:1059F000401E05F10105019004D12E205246179951
:105A000090476D1CB9F10001A9F10109DEDC05E048
:105A100017F8010B5246179990476D1C0299481EC2
:105A200002900029F4DC53462146179A03989EE61B
:105A30002D0000002B000000200000002DE9F041A7
:105A4000044600251E461746880404D405E039465E
:105A50002020B0476D1C641EF9D52846BDE8F081B2
:105A60002DE9F041044600251E469046C80301D5A5
:105A7000302700E02027880404D505E04146384659
:105A8000B0476D1C641EF9D52846BDE8F0814A6810
:105A9000002A06D00A68531C0B6010704868401E2C
:105AA000486070470D4B10B55C79002221F8140056
:105AB0009879082801D2641C00E00824E3B2002091
:105AC00005E000BF31F81040401C2244C0B29842AB
:105AD000F8D3B2FBF3F080B210BD00003400002018
