:020000040800F2
:10000000A00B002005010008E3400008F5340008BB
:10001000E1400008B90C0008DD4A000800000000BB
:10002000000000000000000000000000D9440008AB
:10003000CD12000800000000D5430008DB44000892
:100040001F0100081F0100081F0100081F01000810
:100050001F0100081F010008451300081F010008C8
:100060001F0100081F0100081F010008BD0C000847
:100070001F0100081F0100081F0100081F010008E0
:10008000C90C00081F010008390400081F010008FE
:100090001F0100081F0100081F0100081F010008C0
:1000A0001F0100081F0100081F0100081F010008B0
:1000B0001F0100081F0100081F0100081F010008A0
:1000C0001F0100081F0100081F0100081F01000890
:1000D0001F010008D14A00081F0100081F01000885
:1000E0001F0100081F0100081F010008DFF810D0E1
:1000F00000F090F9004800476F4E0008AFF3008011
:10010000A00B00200648804706480047FEE7FEE7B0
:10011000FEE7FEE7FEE7FEE7FEE7FEE7FEE7FEE7B7
:1001200057450008ED000008D2B201E000F8012BAD
:10013000491EFBD270470022F6E710B513460A4667
:1001400004461946FFF7F0FF204610BDF0B480EAE0
:100150000102D40F4200B2EB410F02D20246084620
:1001600011464A0042D0C30DDDB2C1F3C752AD1AE9
:10017000202D35DAC1F3160141F4000204B15242D8
:10018000C5F1200602FA06F12A411044B3EBD05F14
:1001900023D0C4B1012DA0EBC35009DCF0BC4FF05B
:1001A000004202EAC352DBB200F5000000F0E6B8FC
:1001B000400000F1807000EBC350A0F1807040EA75
:1001C000D170490009E0490841EAC071A0EBC35071
:1001D00000F50000400800EBC350F0BC00F0C5B8CB
:1001E0006142012202EB4101001BF6E7F0BC7047BF
:1001F00081F00041AAE780F00040A7E780EA010211
:1002000010B502F00043400022D04A001FD0010E7A
:1002100001EB1261C0F35600C2F3560240F4000035
:1002200042F40002A0FB022000047F39140400D035
:10023000401C50EA124001D44000491EC2B20C06D4
:1002400004EBD010401C4008802A02D003E00020BC
:1002500010BD20F00100002900DA0020184310BD75
:1002600030B480EA010202F0004530F0004221F093
:10027000004013D090B1C30DD40DC2F31601C0F3EA
:100280001600E41A41F4000140F400027D3491426A
:1002900001D3641C00E04900002C02DA30BC0020CD
:1002A00070474FF400000023914201D3891A0343A1
:1002B00040084FEA4101F7D151B1914202D14FF0CC
:1002C000004105E002D24FF0010101E06FF00101B1
:1002D00003EBC450284430BC00F047B8420005D0BE
:1002E000C0F3C7525242914201DC0020704700EB3C
:1002F000C1507047C10F80EAE0700844CA079623D6
:10030000002100F03BB896230022114600F036B8D9
:1003100000F0004220F00040C10DC0F3160040F490
:1003200000007F2901DA00207047962903DCC1F123
:100330009601C84001E096398840002AF4D0404236
:10034000704720F00040C10DC0F3160040F40000DB
:100350007F2901DA00207047962903DCC1F196015C
:10036000C84070479639884070470029A8BF704739
:10037000401C490008BF20F00100704710B4B0FADB
:1003800080FC00FA0CF050EA010404BF10BC704776
:1003900049B1CCF1200421FA04F411FA0CF118BF90
:1003A000012121430843A3EB0C01CB1D4FEA00615F
:1003B0004FEA102042BF002010BC704700EBC35032
:1003C00010440029A4BF10BC7047401C490008BF5E
:1003D00020F0010010BC704710B541000CD0C0F3F4
:1003E000C751962908DC7E2909DC06DB410204D0CE
:1003F00000F0004040F07E5010BD002010BDC1F163
:100400009604C4F1200100FA01F1E040FFF7ADFFCE
:10041000A04010BD064C074D06E0E06840F0010327
:1004200094E8070098471034AC42F6D3FFF762FE19
:10043000945A0008B45A0008014801F056B8000068
:100440009400002070B5044600688168C943C9075C
:1004500017D1816821F00101816001F0B5FC0546EA
:100460000AE000BF01F0B0FC401B022804D920685C
:100470008068C043C00706D020688068C043C007BA
:10048000F0D0002070BDA06A40F01000A062E06AC9
:1004900040F00100E062012070BD10B50146406AE5
:1004A000826A12F0500F05D0006A026BBDE810405E
:1004B00008461047816A41F40071816201688968C9
:1004C000C1F3424107290CD1017B51B9816A21F462
:1004D00080718162816AC90403D4816A41F001019B
:1004E000816200F0FFFF10BD10B5406A816A41F0E3
:1004F00040018162C16A41F00401C16200F0F4FF71
:1005000010BD10B5406A00F0EEFF10BDF8B5002632
:100510000446009600688168C943C9072DD08168E8
:1005200041F001018160164816490068B0FBF1F006
:1005300000E0401E00900028FBD101F045FC05467C
:1005400016E000BF01F040FC401B022810D92068D3
:100550008068C043C0070BD0A06A40F01000A062C2
:10056000E06A40F00100E06284F824600120F8BDF8
:1005700020688068C043C007E4D10020F8BD0000B7
:100580000C00002040420F0070B51C461546DDE906
:1005900004630278C6B112B9012202700B600868C8
:1005A0004FF4FA71181AB0FBF1F0C00703D100F054
:1005B0005BFB002202E000F047FB012221462846B7
:1005C000BDE8704001F0FBBB012A02D1002101709F
:1005D000F1E770BD10B503F005FE03F083FD5FA2E7
:1005E0000321012003F0C1FE02215FA2084603F0AF
:1005F000BCFE61A20521032003F0B7FE042160A226
:10060000084603F0B2FE4FF44874204601F0C2FAE7
:1006100003F068FD01215DA2084603F0A6FEC82094
:1006200001F0B8FA5DA20121022003F09EFE03F062
:1006300093F9962001F0AEFA02215BA2084603F07E
:1006400094FE5AA20121032003F08FFE00F0FCFA71
:10065000962001F09FFA54A20221032003F085FEA8
:1006600055A20121042003F080FE03F0DFFAC82028
:1006700001F090FA4CA20221042003F076FE4FF420
:10068000967001F087FA03F02DFD01213FA2084684
:1006900003F06BFE4CA20121022003F066FE00F085
:1006A0002FFB962001F076FA02213FA2084603F0C4
:1006B0005CFE49A20121032003F057FE00F088FEF2
:1006C000962001F067FA38A20221032003F04DFEC4
:1006D00045A20121042003F048FE00F00BFD962006
:1006E00001F058FA30A20221042003F03EFE60100F
:1006F00001F050FA03F0F6FC3FA20221012003F0C2
:1007000034FE41A20121032003F02FFE42A2022168
:10071000042003F02AFE642000F08AFA204601F04B
:1007200039FA03F0F9F83F49087003F0DBFC3EA208
:100730000221012003F019FE3FA20121022003F053
:1007400014FE40A20121032003F00FFE0121BDE8A9
:10075000104040A2042003F008BE000053544D3363
:1007600032463130334338004D756C74692D536512
:100770006E736F720000000053797374656D000032
:1007800076312E302E32303235000000496E6974D9
:1007900069616C697A696E672E2E2E005B20205D80
:1007A000204B6579730000004F4B00005B20205DFB
:1007B00020426565700000005B20205D204D41589F
:1007C00033303130300000005B20205D2044533155
:1007D00038423230000000005B20205D204C696709
:1007E000687420536E7300005B20205D2050726F90
:1007F000746F636F6C00000053797374656D2052E1
:1008000065616479000000005072657373204B6568
:100810007920746F0000000053656C656374204D8F
:100820006F6465001800002053656C656374204D8B
:100830006F64653A00000000312E48522026205394
:10084000704F3200322E54656D706572617475722E
:1008500065000000332E4C69676874204C6576652E
:100860006C0000002DE9FC4701F0AEFAB84D0446DB
:100870004FF4FA76686A201AB04202D300F008FDFD
:100880006C62A86AB146201ADFF8C8A248450BD3AB
:1008900000F05DFD1E2801D9002200E001220221A6
:1008A000504601F08CFAAC62E86A201A232804D37F
:1008B00000F068FD04F0DCFBEC62204600F046FA34
:1008C00004F056FCA878002790B1E868201A484543
:1008D0000ED3AF70687810B1012809D103E001216F
:1008E0009DA2042002E001219FA2084603F03DFDE5
:1008F00003F012F8064628784FF0010826EA0000B7
:10090000C10714D0642000F0B7F96878002852D0ED
:100910006F7000F0DDFC98A20121042003F025FD9A
:10092000EC6085F80280EF7100F08EF943E08107FA
:100930001CD5642000F0A0F9687801283BD085F828
:10094000018003F0CFFB90A20121022003F00DFDF6
:100950008FA20721022003F008FD01218EA2084684
:1009600003F003FDEC6085F8028024E0400722D507
:10097000642000F081F9687802281AD0022068709B
:1009800003F0B0FB012188A2084603F0EEFC8AA226
:100990000121022003F0E9FC89A20721022003F0D3
:1009A000E4FC012188A2084603F0DFFCEC6085F836
:1009B000028004F0CFFB2E70687890B3022863D1D8
:1009C000286B201A48455FD300F0DCFC074600F096
:1009D000EFFC804600F0BBFC0646012172A20846EF
:1009E00003F0C3FC74A20121022003F0BEFC032328
:1009F00032460721022003F097FC77A20A21022049
:100A000003F0B3FC75A20121032003F0AEFC042324
:100A10003A460521032003F087FC462E51D90126D2
:100A200050E0FFE702F0CCFF044603F069F8064609
:100A300054EA060000D001206979884206D0687126
:100A400020B368A20121042003F08FFCE87834B3BE
:100A5000A0420ED0032322460721022003F064FCAB
:100A6000EC70283C8C2C04D862A20121042003F0F5
:100A70007CFC2879E6B1B04206D003233246072138
:100A8000184603F051FC2E71BDE8FC8732A201210B
:100A9000042003F06AFCFF20E8702871D6E70028E4
:100AA000E7D057A20721022003F05FFCEF70E0E7D8
:100AB0000028E9D052A20721032003F056FC2F7131
:100AC000E2E700262249CDE9006420314FF480732B
:100AD0005246A1F11800FFF757FD3EB149A20C2183
:100AE000032003F042FC48A201212CE021A20C21AA
:100AF000032003F03AFC48A20121042003F035FC56
:100B00004046FFF71EFC86B23046FFF7FCFB41462D
:100B1000FFF771FB4349FFF771FBFFF712FC87B248
:100B2000012332460921042003F0FEFB3EA20A21E4
:100B3000042003F01AFC02233A460B21042003F0A0
:100B4000F3FB3AA20D21042003F00FFC2C639BE77A
:100B500018000020000801405374617475733A2036
:100B6000576169740000000052656164696E672E08
:100B70002E2E2020202020005374617475733A209B
:100B8000496E69740000000054656D703A00000001
:100B9000202020430000000054656D70204D6F64DC
:100BA00065202020202020004C69676874204C6557
:100BB00076656C20202020004C6576656C3A00003C
:100BC00020202025000000004C69676874204D6FCC
:100BD0006465202020202000250000004144433A85
:100BE000000000005374617475733A204D656173A1
:100BF000000000005374617475733A204F4B20005D
:100C00002D2D2D0021212100546F6F204272696724
:100C10006874212020202000566F6C746167653A4B
:100C2000000000000000C8422E0000005600000036
:100C300010B5044600F018F8204600F0ABFFBDE800
:100C4000104000F001B8000010B500224FF4004140
:100C5000034801F0B4F803490020087010BD0000FB
:100C600000100140100000200122D103014801F0D2
:100C7000A6B800000010014010B50446FFF7F4FFCD
:100C800001F0A2F80119024841600121017010BD74
:100C90001000002010B5074C2078002808D001F083
:100CA00093F86168884203D3BDE81040FFF7CCBFDA
:100CB00010BD000010000020FEE70000014800F019
:100CC00059BE0000C4000020014800F053BE0000DF
:100CD000EC01002030B590F840500124AC40C56BC9
:100CE0006C60046863604368102B036803D09960EC
:100CF0000068C26030BD9A600068C16030BD00000D
:100D000010B586B0002002900E48816941F00401C0
:100D1000816180690C4C00F0040004900420009074
:100D200011200190032003906946204600F052FFF5
:100D300001220421204601F042F80A2000F02AFF97
:100D400006B010BD00100240000801402DE9FC472C
:100D5000614C06464FF00008A079A0B1012842D0AE
:100D600002283ED100F03CF95C490546884273D820
:100D70005B48854270DC2846A56100F083FA607804
:100D8000012838D0A3E06069301AB0F5FA6F28D393
:100D900000F044F998B1CC2000F07EF9442000F036
:100DA0007BF901202661A0716078012819D102B079
:100DB0000121BDE8F0474BA2084603F0D6BA60789F
:100DC000012809D101214BA2084603F0CEFA4DA219
:100DD0000121032003F0C9FA84F80780FFF734FFEC
:100DE0006661BDE8FC872069301AB0F5487FF8D30A
:100DF0000220A071F5E72846FFF78AFA00B2814683
:100E0000FFF778FA2946FFF7F6F94249FFF7F6F9B6
:100E1000FFF77EFA07B2002F01DA784207B203F03B
:100E200061F93D48854201DD012500E000252A49A0
:100E3000CDE900561C314FF40043384AA1F11500AA
:100E4000FFF7A2FB4DB1012135A2084603F08DFA50
:100E5000012137A2032003E020E0012137A2084648
:100E600003F083FA39A20121022003F07EFA022363
:100E70004A460621184603F057FA36A208210220F6
:100E800003F073FA01233A460921022003F04CFAD9
:100E900031A20A21022003F068FA18E02F488542A7
:100EA000607809D1012804D12DA20121032003F08B
:100EB0005CFA84F807800AE0012804D12CA2012101
:100EC000032003F052FA84F80780FFF7BDFE666145
:100ED00084F8068085E7000018000020000048C262
:100EE0000000FA42436F6E76657274696E672E2E4B
:100EF0002E2020004E6F20446576696365202020F7
:100F0000202020005265736574204661696C656419
:100F100020202000000020410000C841000C0140BA
:100F20002A2A2A20414C41524D202A2A2A202000D8
:100F3000546F6F20486967682100000054656D7028
:100F400065726174757265202020200054656D7093
:100F50003A0000002E000000204300000000C6C23E
:100F600052656164204661696C6564202020200020
:100F70004F7574206F662052616E676520202000D7
:100F80002DE9F0410025154F2C46012600220421B1
:100F9000384600F014FF052003F022FF012204214F
:100FA000384600F00CFF082003F01AFF04213846F1
:100FB00000F000FF01284FF02F0008D003F010FFD1
:100FC000641CE4B2082CE1D32846BDE8F08103F0AC
:100FD00007FF06FA04F02843C5B2F1E70008014014
:100FE00010B500F01BF8A8B1CC2000F055F8BE20D9
:100FF00000F052F8FFF7C4FF0446FFF7C1FF44EAD0
:10100000002000B2FFF776F9BDE810406FF0030151
:10101000FFF764B9004810BD0000C6C270B51D4D91
:10102000002401220421284600F0C9FE012003F01B
:10103000D7FE0421284600F0BDFE002204212846E8
:1010400000F0BDFE012003F0CBFE0421284600F095
:10105000B1FE00220421284600F0B1FE4FF4FA70E0
:1010600003F0BEFE01220421284600F0A8FE46201F
:1010700003F0B6FE0421284600F09CFE00B90124CE
:101080004FF4D77003F0ACFE0421284600F092FE26
:10109000204670BD0008014070B5154E054600247D
:1010A00025FA04F010F0010F4FF000024FF0040198
:1010B00030460BD000F083FE052003F091FE0122A4
:1010C0000421304600F07BFE37200AE000F077FE76
:1010D0003C2003F085FE01220421304600F06FFE23
:1010E0000A2003F07DFE641CE4B2082CD8D370BD46
:1010F00000080140704700002DE9F04705464F4CBD
:101100004FA04FF03A08016821604068606084F8A1
:101110000880297804F1090003F082FE09304BA20F
:10112000211813680B6092888A80861D6978A0193F
:1011300003F076FE064447A1A0190A680260898878
:1011400081806F68B61D3846FFF7E2F800B281462D
:10115000FFF7D0F83946FFF74EF84049FFF74EF851
:10116000FFF7D6F807B2002F01DA784207B2A019CC
:10117000494603F055FE06444FF02E0904F8069048
:10118000761CA019394603F04BFE064434A1A01981
:101190000A6802608988818080F80680F61D4746CB
:1011A000297AA01903F03CFE06442FA1A019096872
:1011B00001600771761D6989A01903F031FE0644AC
:1011C0002BA1A0190A680260898881802A49B61D6E
:1011D000E868FFF713F84FF07C51FEF7B7FFFFF711
:1011E000B0F885B26427B5FBF7F1A01903F018FE3B
:1011F0000644B5FBF7F004F8069007FB1051761C87
:101200000A2902D23020A055761CA01903F008FE4E
:1012100030441AA2211812880A800A228A70811C7E
:10122000C01C7F2907D2BDE8F04782B2642303497E
:10123000134802F0F8B8BDE8F0870000200700204E
:1012400024444154412C48523A0000002C53504F42
:10125000323A00002C54454D503A00000000204125
:101260002C4C494748543A002C4144433A00000072
:101270002C564F4C543A00000000C8422A0D0A0078
:1012800030020020014908607047000088000020FB
:1012900010B502F095FB0B4C207002F031FC607031
:1012A00009480068606000F052F8207200F06AF8A7
:1012B000608100F07DF8E0602046BDE81040FFF757
:1012C0001BBF0000100700208800002070470000AE
:1012D00010B502F007FF01210BA2084603F045F804
:1012E0000DA20121022003F040F80FA201210320EA
:1012F00003F03BF80FA20121042003F036F8104858
:10130000FF21C170017110BD3D3D48522026205380
:10131000504F323D3D00000048656172743A202014
:10132000202062706D00000053704F32203A202060
:10133000202025005374617475733A202D2D2D00E3
:1013400018000020012000F039BC72B6FEE700B59D
:1013500000F018F840F6EA31884201D3002000BDC1
:1013600041280DD96FF06302A0F6EA30504340F6F1
:10137000A93100F2D450B0FBF1F0C0B26428EED92C
:10138000642000BD0021084A084600BF32F8103032
:10139000401C1944C0B289B20A28F7D30A20B1FB15
:1013A000F0F00249088070473C06002078000020D9
:1013B00010B5FFF7E7FFFEF7A6FF6FF00B01FEF792
:1013C0008DFFBDE810400149FEF718BF333353408D
:1013D0000A220249024800F0D7B900003C0600206A
:1013E0009400002070470000F8B50024009490F8A5
:1013F00024202546012A12D0012280F824204A68A0
:101400001F23072A0DD20668776B521E02EB820259
:1014100093409F430B6893401F43776319E002207A
:10142000F8BD06680D2A0AD2376BD21F02EB820282
:1014300093409F430B6893401F43376309E0F76A6B
:101440000D3A02EB820293409F430B6893401F4387
:10145000F7620A68072306680A2A0AD3F7680A3A75
:1014600002EB420293409F438B6893401F43F76017
:1014700008E0376902EB420293409F438B68934038
:101480001F4337610A68102A01D0112A20D1124B5C
:1014900002689A4217D193681B0219D4936843F4E7
:1014A000000393600968102912D10C490C4A09689D
:1014B000B1FBF2F101EB8101490000E0491E00910E
:1014C0000029FBD104E0816A41F0200181620124FE
:1014D00080F824502046F8BD002401400C00002074
:1014E00040420F0070477047704770B5044600686F
:1014F00006684568A90625D5B10723D5A16AC9069E
:1015000003D4A16A41F40071A1628168C1F3424130
:10151000072910D1217B71B9416821F02001416078
:10152000A06A20F48070A062A06AC00403D4A06AFC
:1015300040F00100A0622046FFF7D4FF21686FF061
:101540001200086028062ED570072CD5A06AC006A8
:1015500003D4A06A40F40050A06220688168C1F3FF
:101560000231072909D04168490515D48168C1F3C2
:101570004241072910D1217B71B9416821F08001D6
:101580004160A06A20F48050A062A06AC00503D424
:10159000A06A40F00100A0622046FFF723FF216807
:1015A0006FF00C00086068060CD5F0070AD0A06A3E
:1015B00040F48030A062204600F094F821686FF07B
:1015C0000100086070BD00002DE9F0414FF00007F8
:1015D00004003D467ED0A06A002628B9E66284F861
:1015E0002460204600F080F82046FEF72BFFA16A19
:1015F000C90600D420B1A06A40F01000A06269E0E2
:10160000A16A21F4885141F00201A1626268E16996
:10161000237B0A4347EA43010A43A1684FF48077DA
:10162000B94209D0012907D05FF0000194F814C035
:10163000BCF1010F02D00AE03946F7E7F3B1A36A23
:1016400043F02003A362E36A43F00103E3622368EB
:10165000D3F804C02CF4694C4CEA010CC3F804C064
:1016600021688B68DFF870C003EA0C0313438B60BA
:10167000A168B9420BD0012909D00CE0DFF85CC0A9
:10168000A3690CEB43330B4343F40061DFE7218A8A
:101690000D05A5F580152168CB6A23F470032B4353
:1016A000CB62216889680E4B1940914208D1E662ED
:1016B000A16A21F0020141F00101A162BDE8F081BF
:1016C000A06A20F0020040F01000A062E06A40F042
:1016D0000100E0620120F1E7FDF7E1FF00E0FFFF1C
:1016E000FE0E1FFF7047000070B586B0002506464D
:1016F000009501950295039500681E49884236D1F0
:101700001D49886940F400708861886900F40070A0
:101710000490886940F0040088618869694600F097
:10172000040004901020009003200190134800F062
:1017300051FA144C1248C4E900058020C4E9025053
:1017400040002061800060612020C4E90605204639
:1017500000F0BAF908B1FFF7F8FD34620022114633
:101760001220666200F04EFE122000F03DFE06B030
:1017700070BD00000024014000100240000801403C
:1017800008000240C40000202DE9F04789460446C5
:101790003B4900683B4F0E1D9046884201D0B8423D
:1017A00007D1306810F4702F03D001252846BDE81A
:1017B000F08794F8240001280CD0012084F824003C
:1017C0002046FEF7A3FE05004FF0000004D084F889
:1017D0002400EBE70220EAE7A16A40F601629143A8
:1017E00041F48071A1622168B94218D1326812F4C3
:1017F000702F14D0A16A41F48011A16231684905AB
:1018000005D5A16A21F4005141F48051A162A16A79
:10181000C9040AD5E16A21F00601E16206E0A26A84
:1018200022F48012A2624968E9E7E06284F82400A9
:10183000216A15488862216A1448C862216A1448DE
:10184000086321686FF0020008602068816841F435
:1018500080718160216843464A464C31206A00F01D
:1018600061F920688168C1F342410729816803D08A
:1018700041F48011816099E741F4A001FAE700008A
:1018800000240140002801409B04000803050008D3
:10189000E904000810B590F821100022022905D0B3
:1018A0000421816380F82020012010BD01680B68AD
:1018B00023F00E030B6001680B6823F001030B603B
:1018C00090F84030C46B012101FA03F3636080F8A3
:1018D000211080F82020104610BD000010B590F8AF
:1018E00021100024022903D00421816301243DE05A
:1018F00001680A6822F00E020A6001680A6822F094
:1019000001020A601A4A0168914201D1012121E0D5
:10191000174A1432914201D110211BE0144A283297
:10192000914201D1891515E0114A3C32914201D111
:1019300089140FE00E4A5032914202D14FF48031A7
:1019400008E00B4A6432914202D14FF4801101E069
:101950004FF08071064A083A5160012180F8211049
:10196000002180F82010416B01B18847204610BD4E
:10197000080002402DE9F05FC16B0C6801680B683C
:10198000D0F840C0042202FA0CF2494DDFF824A13D
:10199000494E4A4FDFF828B1DFF828E122422CD027
:1019A0005A072AD50A68920603D40A6822F004026C
:1019B0000A600168A94201D1042219E0514501D110
:1019C000402215E0B14202D14FF4806210E0B942EA
:1019D00002D14FF480420BE0594502D14FF48022EE
:1019E00006E0714502D14FF4800201E04FF08062C1
:1019F0002F4908394A60C16A3BE04FF0020808FAF3
:101A00000CF818EA040F4FF000094FF0010235D02E
:101A10005FEA837832D50B689B0605D40B6823F008
:101A20000A030B6080F821200168A94201D102223B
:101A300019E0514501D1202215E0B14202D14FF405
:101A4000007210E0B94202D14FF400520BE0594548
:101A500002D14FF4003206E0714502D14FF400127A
:101A600001E04FF00072124908394A6080F8209076
:101A7000816A00291AD0BDE8F05F0847082505FAF9
:101A80000CF5254212D01B0710D50B6823F00E036E
:101A90000B6090F84010C36B02FA01F15960826349
:101AA00080F8212080F82090016BE2E7BDE8F09FEC
:101AB000080002401C000240300002404400024086
:101AC000580002406C00024030B528B308C81349E2
:101AD00014221944B1FBF2F18900C16310498163FA
:101AE000022141771A6843F6F0718A43D0E9001465
:101AF0002143D0E902452C43214304692143446931
:101B0000214384692143114319600021416301226B
:101B100042770177084630BD012030BDF8FFFDBF98
:101B20000000024070B5044690F82000002501280E
:101B30000CD0012084F8200094F821600020012EB0
:101B400006D084F820000225284670BD022070BD12
:101B5000022684F82160A0632068066826F001064A
:101B600006602046FFF7B6F8E06A002820680168A2
:101B700002D041F00E0106E021F00401016020686E
:101B8000016841F00A0101602068016841F001012B
:101B90000160D9E770B5044600F016F90546601CEF
:101BA00002D004480078044400F00EF9401BA04223
:101BB000FAD370BD0000002070470000044910B542
:101BC0000A68024202D00860FFF7F6FF10BD00006D
:101BD000140401402DE9F84FDFF8B8910024A9F171
:101BE000040B23460F2709F1040AABF1040EC9E0E8
:101BF0000125A5402A40AA427DD1674ED1F804C0F4
:101C0000ACEB0608B44532D014DCBCF1030F3AD07B
:101C100009DCBCF1000F2AD0BCF1010F1CD0BCF1D3
:101C2000020F31D11DE0BCF1110F17D0BCF1120F22
:101C30002AD119E0B8F5881F19D006DCB8F5803F25
:101C400015D0B8F5801F1FD111E0B8F5001F0ED0D8
:101C5000B8F5041F18D10AE0CB6815E0CB681B1D4E
:101C600012E0CB6808330FE0CB680C330CE08B68D4
:101C70002BB1012B4FF0080303D0456104E004238E
:101C800002E0056100E00023FF2A01D8064601E0DA
:101C900000F104064FEA840501D9A5F12005D6F824
:101CA000008007FA05FC28EA0C0803FA05F548EA63
:101CB0000508C6F800804D68ED0062D5374DAE6965
:101CC00046F00106AE61AD6924F0030605F001059A
:101CD0000095334D06EB050CDCF80850A607360FCF
:101CE00007FA06F825EA0805DFF8B880404503D171
:101CF0004FF0000817E044E0DFF8AC80404502D127
:101D00004FF001080FE0DFF8A480404502D14FF00A
:101D1000020808E0DFF89880404502D14FF0030840
:101D200001E04FF0040808FA06F848EA0508CCF884
:101D300008804D68D9F80060ED024D4601D5164384
:101D400000E096432E604D68DAF80060AD0255461B
:101D500001D5164300E096432E604D68DBF8006025
:101D6000AD035D4601D5164300E096432E604D68F5
:101D7000DEF80060ED03754601D5164300E096439A
:101D80002E60641C0D682A46E5407FF431AFBDE843
:101D9000F88F0000080401400000111000100240FC
:101DA0000000014000080140000C0140001001400B
:101DB000001401408068084000D0012070470AB13B
:101DC000016170470904FBE7014880687047000023
:101DD0000000002070B5040025D094F83D000025D7
:101DE00020B984F83C50204600F076FA242084F88C
:101DF0003D002068016821F0010101602068016850
:101E000041F4004101602068016821F40041016053
:101E100000F036FC4D4A6168914201D84C4900E01F
:101E20004C49884201D2012070BD4B492368B0FB68
:101E3000F1F15E6826F03F060E435E6063689342F0
:101E400006D94FF4967359434FF47A73B1FBF3F10B
:101E50002368491C1E6A26F03F06314319626168F7
:101E6000914210D84900401EB0FBF1F2521CC2F35F
:101E70000B02042A01D2042022E0B0FBF1F0401C46
:101E8000C0F30B001CE0A268F2B301EBC10303EB4B
:101E90000116431EB3FBF6F35B1C43F480431B05A2
:101EA00049D092B301EBC10202EB0111401EB0FB1D
:101EB000F1F0401CC0F30B0040F4804040F40040BF
:101EC0002168CA694CF6FF739A431043C861D4E98C
:101ED000071001432068026822F0C002114301602C
:101EE000D4E9030101432068826848F2FF339A4332
:101EF00011438160D4E9050108432168CA6822F0D2
:101F0000FF021043C86001E00EE016E0206801689F
:101F100041F0010101602564202084F83D00256323
:101F200084F83E50002070BD01EB4106431EB3FB18
:101F3000F6F35B1CB3E70120C2E701EB4101401E51
:101F4000B0FBF1F0401CC0F30B00B7E7A086010026
:101F500080841E0000093D0040420F002DE9F84F2B
:101F60000025DDF82890984617468A4604460095D5
:101F7000FFF72AFF064694F83D0020287AD119235E
:101F8000012286492046009601F0BCFB0028F5D1CD
:101F900094F83C0001286DD0012084F83C002068B2
:101FA0000168C90703D1016841F00101016020689F
:101FB000016821F400610160222084F83D001020B6
:101FC00084F83E0025646762A4F82A80608D20852D
:101FD0007348E06233464A465146204601F0A2FA71
:101FE00000287CD1208DDFF8BC81202768B1012832
:101FF00014D00228206801681ED041F4806101607D
:102000002068416980690090BBE02068416981696E
:102010000091016841F400710160B2E0206801683C
:1020200021F48061016072B6206841698169009184
:10203000016841F400710AE041F40061016072B688
:102040002068416981690091016821F48061016023
:1020500062B696E0032865D801280CD002284B46CA
:102060004FF000024146204600960BD001F04AFB9B
:10207000A8BB0CE090E032464946204601F0E8FB60
:1020800068BB71E001F03EFB48BB72B633E02068EC
:10209000016821F48061016072B620680069616A9C
:1020A0000870606A401C6062208D401E2085608D33
:1020B000401E60853C4846F2A8110068B0FBF1F074
:1020C000C0EBC00000EB80000090401E009007D0E5
:1020D00020684069C04340070DD50098F5E727E028
:1020E00044F8305F6773A573206940F020002061D9
:1020F00062B625731CE02068016841F4007101603C
:1021000020680069616A0870606A401C6062218D05
:10211000491E2185618D491E618562B62168096964
:10212000017025E032464946204601F091FB10B18E
:102130000120BDE8F88F20680069616A0870606A54
:10214000401C6062208D401E81B22185608D401E42
:10215000608520684269D243520712D4032903D113
:10216000016821F48061016020680069616A08707B
:10217000606A401C6062208D401E2085608D401E7C
:102180006085208D00287FF465AF84F83D7084F869
:102190003E5084F83C50CCE70220CAE70200100011
:1021A0000000FFFF040001000C0000202DE9F84FA3
:1021B0001F4690468A460446DDF82890FFF704FE45
:1021C000054694F83D0020287FD11923012240497B
:1021D0002046009501F096FA002876D194F83C004C
:1021E000012872D0012084F83C0020680168C907EA
:1021F00003D1016841F0010101602068016821F408
:1022000000610160212084F83D00102084F83E0028
:1022100000262664C4F824806785608D20852D48BB
:10222000E0622B464A465146204601F0F1F990B94A
:10223000206841698069009036E02A464946204678
:1022400001F03EFB50B1206C042804D120680168E5
:1022500041F4007101600120BDE8F88F606A2168D7
:1022600000780861606A401C6062618D491E61856A
:10227000218D491E89B2218522685369DB435B07A2
:102280000BD451B100781061606A401C6062608DAF
:10229000401E6085208D401E20852A4649462046E6
:1022A00001F004FA0028CED1208D0028C5D154F8C1
:1022B0003D0B016841F400710160202004F81E0903
:1022C000E67766770020C7E7FFE70220C4E7000053
:1022D000020010000000FFFF10B586B00021009141
:1022E0000191029103910068104988421BD1104C62
:1022F000A06940F00800A061A069694600F00800EC
:1023000004904FF44060009012200190032003904D
:102310000848FFF75FFCE06940F48000E061E06995
:1023200000F48000049006B010BD0000005800408A
:1023300000100240000C01400248816802781144FC
:102340008160704700000020074810B5016841F027
:1023500010010160032000F075F80F2000F006F86E
:1023600000F024F8002010BD0020024070B50D4D93
:1023700004464FF47A712878B1FBF0F00A490968F5
:10238000B1FBF0F000F052FB48B9102C07D200224C
:102390002146501E00F036F800206C6070BD012010
:1023A00070BD0000000000200C0000200C4808B5A3
:1023B000816941F001018161816901F001010091B0
:1023C000C16941F08051C161C06900F08050009046
:1023D0000448416821F0E06141F00071416008BDAE
:1023E0000010024000000140002809DB00F01F023D
:1023F000012191404009800000F1E020C0F8001167
:1024000070470000F0B40E4B1B680C46C3F3022368
:10241000C3F10705042D00D90425191D072901D290
:10242000002300E0DB1E012606FA05F1491E2140CB
:1024300099409E40761E16403143F0BC02F06BBBC3
:102440000CED00E0064900F0070208684FF6FF03B4
:10245000184040EA0220034A104308607047000019
:102460000CED00E00000FA052DE9F8430546007880
:10247000354CC00754D0E0690026C00008D4E0699C
:1024800040F08050E061E069012600F0805000904B
:102490002E480168C90512D40168804641F4807154
:1024A0000160FFF791FC074605E000BFFFF78CFCD9
:1024B000C01B642823D8D8F80000C005F6D5206AD0
:1024C00010F4407021D0A98801F4407181421CD0E1
:1024D000206A1F49012220F440700A6000220A602D
:1024E0002062C00711D0FFF76FFC074641F2883821
:1024F00008E000BFFFF768FCC11B414502D903207B
:10250000BDE8F883206A8007F4D5206A696820F462
:102510004070084320621EB1E06920F08050E06105
:102520002878800705D56068A96820F440400843F2
:1025300060602878C00605D56068E96820F48000EE
:10254000084360600020DBE700100240007000409C
:10255000400442422DE9F0470F46050061D0434E4A
:10256000306800F00700B84209D2306820F0070058
:1025700038433060306800F00700B84251D1286815
:102580003B4C810712D5400703D5606840F4E060FA
:1025900060602878000703D5606840F46050606090
:1025A0006068A96820F0F000084360602878C007E0
:1025B00028D06868012810D02168022810D0890727
:1025C00000292EDA616821F0030101436160FFF701
:1025D000FBFB804641F288390DE021688903EFE773
:1025E0008901EDE7FFF7F0FBA0EB0801494502D9AF
:1025F0000320BDE8F0876068696800F00C00B0EB6C
:10260000810FEFD1306800F00700B8420BD9306875
:1026100020F0070038433060306800F00700B8420F
:1026200001D00120E5E72878400705D56068E96812
:1026300020F4E060084360602878000706D56068F1
:10264000296920F4605040EAC100606000F038F869
:102650006168084AC1F30311515CC840064908602B
:1026600006480068FFF782FE0020C2E70020024013
:1026700000100240425300080C000020040000201B
:102680000448054900684968044AC1F30221515CC5
:10269000C84070470C000020001002405253000850
:1026A0000448054900684968044AC1F3C221515CE5
:1026B000C84070470C000020001002405253000830
:1026C0000E4A51680E4801F00C03042B11D0082B60
:1026D0000FD10C48C1F38343C903C05C0AD55168CC
:1026E000084AC1F34041921E515C054A5043B0FB79
:1026F000F1F0704704494843704700000010024061
:1027000000127A003253000800093D002DE9F84F0D
:10271000040070D02078C04DC00749D06868C0F36D
:102720008100012807D06868C0F38100022809D120
:102730006868C00306D52868800339D5606800281A
:10274000E7D035E06068B0F5803F0BD010B1B0F550
:10275000A02F11D0286820F480302860286820F449
:10276000802002E0286840F480302860606890B1E2
:10277000FFF72AFB06460AE0286840F4802028601C
:10278000F0E700BFFFF720FB801B642873D82868A0
:102790008003F7D50CE0FFF717FB064605E000BF06
:1027A000FFF712FB801B6428F0D828688003F7D459
:1027B00020789A4E80074FF001094FF0000839D574
:1027C000686810F00C0F07D06868C0F38100022819
:1027D00009D16868C00306D42868800714D5206929
:1027E000012808D110E02069B0B1C6F80090FFF7C9
:1027F000EBFA074605E00AE1FFF7E6FAC01B0228FC
:10280000C4D828688007F7D52868616920F0F800E7
:1028100040EAC10028600DE0C6F80080FFF7D4FA56
:10282000074604E0FFF7D0FAC01B022823D8286827
:102830008007F7D4207800072CD57948A169D9B151
:10284000C0F80090FFF7C0FA074604E0FFF7BCFAB3
:10285000C01B02280FD8686A8007F7D571484FF46B
:10286000FA510068B0FBF1F0009000BF0098411EE3
:102870000091FAD20EE080E0C0F80080FFF7A4FAE1
:10288000074604E0FFF7A0FAC01B022875D8686A63
:102890008007F7D42078400760D5E8690027C0009A
:1028A00008D4E86940F08050E861E869012700F049
:1028B000805000905C480168C90513D401688346C4
:1028C00041F480710160FFF77FFA824606E000BFA5
:1028D000FFF77AFAA0EB0A0064284ED8DBF8000074
:1028E000C005F5D5E06801280AD008B1052813D045
:1028F000286A20F001002862286A20F0040002E023
:10290000286A40F001002862E06841F2883B98B1F3
:10291000FFF75AFA82460BE0286A40F0040028626A
:10292000EEE700BFFFF750FAA0EB0A0159455AD86D
:10293000286A8007F6D50CE0FFF746FA824605E0E4
:10294000FFF742FAA0EB0A0159454CD8286A8007E4
:10295000F6D41FB1E86920F08050E861E06988B3DF
:102960006968C1F38101022944D00228C6F8608059
:1029700004D0FFF729FA044638E034E0FFF724FAE0
:10298000074604E0FFF720FAC01B02282BD828686E
:102990008001F7D4206AB0F5803F05D16868A1684E
:1029A00020F4003008436860D4E9080108436968EE
:1029B00021F4741108436860C6F86090FFF704FAC8
:1029C000044606E025E000BFFFF7FEF9001B0228E1
:1029D00009D828688001F7D51BE000BFFFF7F4F99C
:1029E000001B022802D90320BDE8F88F2868800167
:1029F000F4D40EE00128F7D06868226A00F4803130
:102A0000914204D1616A00F47010884201D0012023
:102A1000EAE70020E8E70000001002400000424220
:102A2000800442420C0000200070004010B5401E9F
:102A3000B0F1807F01D3012010BD4FF0E024606130
:102A40000F21601702F067F80020A06107202061C5
:102A5000002010BD70B590F83C20012A26D001243A
:102A600080F83C40022280F83D2003685A689D6847
:102A700022F070060A6832435A600D4B02689A428F
:102A800008D0B2F1804F05D00A4B9A4202D00A4BCF
:102A90009A4204D1496825F080031943916080F877
:102AA0003D40002180F83C10084670BD022070BDFA
:102AB000002C0140000400400008004010B5040054
:102AC00003D094F83D0010B107E0012010BD0020B4
:102AD00084F83C00204600F01FF8022084F83D00F6
:102AE000211D206801F038FD012084F8460084F89B
:102AF0003E0084F83F0084F8400084F8410084F8E8
:102B0000420084F8430084F8440084F8450084F8C7
:102B10003D00002010BD000038B50546194A016887
:102B20001948914208D1816941F40061816180694D
:102B300000F40060009038BD144A9142FBD1C16995
:102B400041F00201C161C069124C00F00200009026
:102B50000F4820601020606000208021C4E902013D
:102B6000490021618900C4E905108800E061204620
:102B7000FEF7AAFF08B1FEF7E8FB6C62AC63656282
:102B800038BD0000002C014000100240000400404D
:102B90006C000240EC01002090F83D10012901D0AA
:102BA00001207047022180F83D1000680B498842DF
:102BB00008D0B0F1804F05D00949884202D00949B8
:102BC000884204D1816801F00701062903D0016819
:102BD00041F001010160002070470000002C01401D
:102BE000000400400008004001680A6A41F2111325
:102BF0001A4207D10A6A9B101A4203D10A6822F0CE
:102C000001020A60012180F83D100020704770B574
:102C1000044690F83C000025012817D0012684F8CE
:102C20003C60022084F83D002068826822F0770230
:102C300022F47F4282600868502838D00DDC2028BA
:102C40004FD005DC90B3102811D14AE0022070BDAE
:102C5000302846D040280AD13BE060282FD0702889
:102C60000DD0B0F5805F03D0B0F5005F12D0012524
:102C700084F83D60002084F83C00284670BDCB6895
:102C8000D1E90121206801F025FD2068816841F02B
:102C9000770109E0CB68D1E90121206801F01AFD34
:102CA0002068816841F480418160E1E719E0CA68E9
:102CB0004968206801F0C2FD5021206806E0CA681A
:102CC0004968206801F0CBFD6021206801F00CFD0F
:102CD000CEE7CA684968206801F0B0FD402120684D
:102CE000F4E7226801461046F0E7704700B585B06A
:102CF0000021009101910291039100680B498842E3
:102D000011D10B48816941F00401816180696946F4
:102D100000F00400049040200090022001900390F5
:102D20000448FEF757FF05B000BD00000004004056
:102D3000001002400008014070B5044690F83C00C5
:102D400000260D4601280FD0012084F83C006AB10E
:102D5000042A1DD0082A2FD00C2A3FD0012600209B
:102D600084F83C00304670BD022070BD206801F040
:102D7000C3FC2068816941F0080181612068816994
:102D800021F004018161206881692A69114311E001
:102D9000206801F0D9FC2068816941F400618161FB
:102DA0002068816921F480618161206881692A69D4
:102DB00041EA02218161D2E7206801F0F1FC20683C
:102DC000C16941F00801C1612068C16921F00401B5
:102DD000C1612068C1692A69114311E0206801F0CE
:102DE0000BFD2068C16941F40061C1612068C169BF
:102DF00021F48061C1612068C1692A6941EA022128
:102E0000C161ACE710B5040003D094F83D0010B1E7
:102E100007E0012010BD002084F83C00204600F0AF
:102E20001EF8022084F83D00211D206801F094FB6B
:102E3000012084F8460084F83E0084F83F0084F8BE
:102E4000400084F8410084F8420084F8430084F88C
:102E5000440084F8450084F83D00002010BD704710
:102E60000349884203D10021014800F0CFB87047E0
:102E7000A4010020704700002DE9F04117460D0025
:102E800004464FF000060CD0042D11D0082D16D0AA
:102E900094F84100022819D094F84100012818D074
:102EA0007CE094F83E00022810D094F83E00F5E74C
:102EB00094F83F00022809D094F83F00EEE794F818
:102EC0004000022802D094F84000E7E70220BDE865
:102ED000F081002F62D0002B60D04649464ADFF8CF
:102EE0001CC102204DB1042D18D0082D27D084F824
:102EF00041000C2D44D0012679E084F83E00606A40
:102F00008162606A3946C262606AC0F830C0226875
:102F1000606A3432FEF706FE88BB21E084F83F0089
:102F2000A06A8162A06A3946C262A06AC0F830C055
:102F30002268A06A3832FEF7F5FD00BB15E084F880
:102F40004000E06A8162E06A3946C262E06AC0F825
:102F500030C02268E06A3C32FEF7E4FD78B909E04F
:102F60002068C16841F400711EE02068C16841F426
:102F7000806119E02068C16841F4006114E00DE04F
:102F8000206B8162206B3946C262206BC0F830C072
:102F90002268206B4032FEF7C5FD08B1012096E79C
:102FA0002068C16841F48051C1600122294620682F
:102FB00001F00EFB12492068884203D1426C42F4B2
:102FC000004242642068884208D0B0F1804F05D0AA
:102FD0000C49884202D00C49884204D1816801F032
:102FE0000701062903D0016841F001010160304664
:102FF0006DE70000EB4500084946000881460008DF
:10300000002C0140000400400008004070B50D0095
:1030100004464FF0000607D0042D0CD0082D11D027
:103020000C2D16D0012645E02068C16821F40071FE
:10303000C160606A13E02068C16821F48061C160EA
:10304000A06A0CE02068C16821F40061C160E06AF8
:1030500005E02068C16821F48051C160206BFEF753
:103060003DFC00222946206801F0B2FA174B41F2DC
:10307000111120688A10984209D1036A0B4206D1C7
:10308000036A134203D1436C23F400434364206872
:10309000036A0B4206D1016A114203D1016821F093
:1030A0000101016001203DB1042D08D0082D09D097
:1030B00084F84100304670BD84F83E00FAE784F899
:1030C0003F00F7E784F84000F4E70000002C0140DF
:1030D00070477047F8B5016804460868CA684B69CC
:1030E00010F00F0F4FF0000559D003F0010602F465
:1030F0009077374365D0C10705D0D10503D5616C02
:1031000041F001016164410705D5D90703D0616C25
:1031100041F002016164810705D5D90703D0616CD4
:1031200041F004016164010707D502F02001314339
:1031300003D0616C41F008016164616C00293AD0F0
:10314000800604D5900602D5204601F0C9FB206810
:103150004069616CC0F38010090700D460B3204659
:1031600001F097FB20684069400621D520681430A3
:1031700050E8001F21F0400140E80012002AF5D17C
:10318000E06BA8B16D494163E06BFEF7A7FB002837
:1031900011D0E06B416B01B0BDE8F04008478306F9
:1031A0000FD593060DD52046BDE8F84001F098BB39
:1031B0002046FFF78EFFF8BD2046FFF78AFF6564C3
:1031C000F8BD266B2023012E7CD1C6067AD5D60603
:1031D00078D508684868009048694FF002064006B4
:1031E00040D5E16B086840680004000CE8D0A28D6F
:1031F0008242E5D9E085886920282DD020680C30EE
:1032000050E8001F21F4807140E80012002AF5D137
:103210002068143050E8001F21F0010140E800123E
:10322000002AF5D12068143050E8001F21F0400139
:1032300040E80012002AF5D184F842302563206866
:103240000C3050E8001F21F0100140E80012002A65
:10325000F5D1E06BFEF71EFB6663A08DE18D401A91
:1032600081B22AE0A08DE18D401A81B2E08D002864
:10327000A6D00029A4D022680C3252E8000F20F416
:10328000907042E80007002FF5D12068143050E814
:10329000002F22F0010240E80027002FF5D184F82A
:1032A0004230256320680C3050E8002F22F01002D5
:1032B00040E80023002BF5D166632046FFF708FFA6
:1032C000F8BDFFE705062BD5150629D594F8410072
:1032D0002128F5D1A068B0F5805F01D12069B0B197
:1032E000206A411C2162216800784860E08C401E01
:1032F0000004000CE084E3D12068C16821F0800163
:10330000C1602068C16841F04001C160D8E7206A0F
:103310000088C0F308004860206A801C2062E5E74E
:103320004006CDD55006CBD5CA68204622F04002D3
:10333000CA6084F8413000F0C7F8C1E7834800084C
:1033400070B5040004D094F84100002510B106E0E7
:10335000012070BD84F84050204600F023F824205E
:1033600084F841002068C16821F40051C160204602
:1033700001F018FB2068016921F490410161206887
:10338000416921F02A0141612068C16841F400517E
:10339000C1606564202084F8410084F842006563C0
:1033A000002070BD30B585B00024009401940294D3
:1033B00003940068184988422CD11848816941F467
:1033C00080418161816901F480410491816941F00A
:1033D000040181618069124D00F0040004904FF4F3
:1033E0000070009002200190032003906946284657
:1033F000FEF7F0FB2815CDE9000469462846029443
:10340000FEF7E8FB002211462520FEF7FBFF2520F2
:10341000FEF7EAFF05B030BD003801400010024061
:103420000008014070472DE9F843044690F8410038
:10343000984616460D46202802D00220BDE8F883A3
:1034400085B17EB100206064212084F84100FEF740
:10345000BBFCA6848146E684A0682027B0F5805F87
:1034600002D003E00120E9E7206910B12E460025D3
:103470000EE000260CE08021204601F0EFFAA8B90A
:10348000C6B116F8010B21684860E08C401EE0844C
:10349000E08C4B464FF00002CDF800800028EAD1C6
:1034A0004FF04001204601F0D9FA40B184F8417054
:1034B0000320C3E735F8020BC0F30800E3E784F804
:1034C00041700020BAE7000000680349884202D139
:1034D00002A001F005BB704700380140554152542D
:1034E00031E58F91E98081E5AE8CE688905C720AC7
:1034F00000000000FEE701684A69D24352050FD47C
:103500006FF480624A61002140F8301F202242732C
:103510008173026942F00402026101730120704765
:10352000002070472DE9F84F0446C06A1E469346B6
:103530000D4621680A6842F480620A60082807D0B4
:10354000012805D010F5803F02D0206B112804D14E
:103550002068016841F4807101604FF001195B46F9
:10356000002249462046009600F0CCF84FF400783F
:1035700040B120680068C00501D5C4F84080032030
:10358000BDE8F88F2069DFF884A0B0F5804F0FD038
:103590000620216800EAD51747F0F000086133469D
:1035A0005A460AF10601204600F0F4F858BB03E041
:1035B000E8B240F001001CE02168E8B2086133463F
:1035C0005A465146204600F0E5F8E0B920684169C6
:1035D00081690091016841F4807101605B460022BD
:1035E00049462046009600F08DF80028C1D147F0EA
:1035F000F1002168086133465A465146204600F0E2
:10360000C9F80028BCD00120BAE700000200010080
:10361000F8B50446C06A1E460D461746082807D06E
:10362000012805D010F5803F02D0206B122804D16C
:103630002068016841F480710160134600224FF058
:1036400001112046009600F05DF840B12068006846
:10365000C00502D54FF4007020640320F8BD206936
:10366000B0F5804F0ED00620216800EAD51040F05A
:10367000F000086133463A460B49204600F08AF8CC
:1036800078B902E005F0FE0000E0E8B221680861C8
:10369000054933463A46891F204600F07BF800284A
:1036A000DCD00120F8BD00000800010070B516460E
:1036B0000D4604461EE02046FFF71DFF08B101201D
:1036C00070BD681C16D0FEF77FFB801BA84200D897
:1036D00085B920684069C04340070BD5002044F8F5
:1036E000300F20216173A073216941F02001216115
:1036F0002073E4E720684069C0434007DBD4002022
:1037000070BD00002DE9F047984617460D46044667
:10371000C1F30746DDF820902AE000BFB8F1FF3F73
:1037200026D0FEF751FBA0EB0901414502D8B8F1C4
:10373000000F1DD12068012E16D0806925EA0000F7
:103740000004000C12D00020B84211D1002044F82F
:10375000300F20216173A073216941F020012161A4
:1037600020730120BDE8F0874069E7E70120EBE71F
:103770002068012E0AD0806925EA00000004000CB0
:1037800006D00020B842C9D00020EBE74069F3E73B
:103790000120F7E72DE9F047984616460D46044606
:1037A0004FF000094FF0200AC1F3074723E02068DB
:1037B0004069C043400515D42068016841F4007198
:1037C000016021686FF480604861C4F8309084F82B
:1037D0003DA084F83E90216C41F00401216484F8FE
:1037E0003C9021E0701C06D0FEF7EEFAA0EB08003A
:1037F000B04203D816B1012F1FD021E02068012F5D
:1038000015D0806925EA00000004000C18D000BF24
:1038100044F8309F84F80DA084F80E90216941F09F
:103820002001216184F80C900120BDE8F0874069F7
:1038300025EA00000004000CEAD12068406901E09C
:103840002068806925EA00000004000CAFD1ECE795
:103850002DE9F041002590460E460446202728E039
:103860004069C043C0060CD454F8301B6FF0100000
:10387000486144F810596777A577206A2062257758
:1038800014E0FEF7A1FAA0EB0800B04200D886B918
:1038900020684069C04340060BD544F8305F677329
:1038A000A573206940F02000206125730120BDE848
:1038B000F08120684169C9434906D1D40020F6E768
:1038C00070B516460D4604461EE02046FFF713FE6F
:1038D00008B1012070BD681C16D0FEF775FA801B78
:1038E000A84200D885B920684069C04300060BD5BE
:1038F000002044F8300F20216173A073216941F04A
:10390000200121612073E4E720684069C04300067C
:10391000DBD4002070BD000070B500244FF480712E
:103920000B48FEF747FA00B901240A4D4FF4004155
:103930002846FEF73FFA08B944F002040121284660
:10394000FEF738FA08B944F00404204670BD0000C0
:10395000000C01400008014030B585B00020019006
:1039600003901448816941F004018161816901F08B
:1039700004010491816941F0080181618069012499
:1039800000F0080004904FF48070009069460294A3
:103990000948FEF71FF9E003084D009069462846E4
:1039A000FEF718F9694628460094FEF713F905B0AA
:1039B00030BD000000100240000C01400008014032
:1039C0002DE9FC41FEF700FA054601A9684600F022
:1039D00085F9BDF80000464C002688B3454A618948
:1039E000454B22F81100BDF8042023F81120C8220D
:1039F000491CB1FBF2F302FB131161813F4B2178AB
:103A0000E76933F8112023F81100BA1A3223491C50
:103A1000B1FBF3F7024403FB1711E26121706178F7
:103A2000322901D2491C617011F0FF0109D0B2FBAB
:103A3000F1F18AB2678A238A9F4204D9F91A03E016
:103A400008E00246F6E7002189B2B2F57A7F01D399
:103A5000642903D226720020BDE8FC81E189E9B324
:103A6000B4F80CC08C4540D281423ED99F4201D966
:103A7000FB1A00E000239BB2C3EB03135B00642737
:103A8000B3FBF7F31A4492B291422ED9226AAA1AD2
:103A9000B2F5967F29D919492562E078643141F859
:103AA0002050401C00F00700E070A078082801D2E8
:103AB000401CA07001F046F9A0F128018C2911D812
:103AC000217A491CC9B2217203290CD3217919B179
:103AD00001EB410108448008207100E005E003206B
:103AE000207200E026722079B6E7A181E081FAE732
:103AF0004C000020780200200804002098050020D7
:103B00002DE9FC4701A9684600F0E8F8BDF800106F
:103B100061B3BDF804204AB33F48038A994200D2FA
:103B20000182438A994200D94182838A9A4200D213
:103B30008282C38A9A4200D9C282436A0B4443629A
:103B4000846AA5188562028B521C1204120C02832F
:103B500001D0B3FBF2F1478A048A4FF47A76A74288
:103B600004D93C1BB14201D3642C02D20020BDE831
:103B7000FC878046402A4CD3B3FBF2F6B5FBF2F249
:103B8000C38A818A8B4201D95F1A00E0002798F826
:103B900007100D465FB356B34AB31046FCF7B3FBAC
:103BA00081462046FCF7AFFB4946FCF727FB04465D
:103BB0003046FCF7A8FB06463846FCF7A4FB314626
:103BC000FCF71CFB2146FCF74BFB1449FCF716FBEA
:103BD0001349FCF710FB1349134A884201DD0846DC
:103BE00002E0904200DA1046FCF7ABFBC1B240465F
:103BF0001DB1C5EBC5021144C908C1710021416264
:103C00004FF6FF728162028241828282C182A8F8ED
:103C1000181098F80700AAE74C0000200000C841DF
:103C20000000DC420000C84200007042FEB500F017
:103C300099F83220FDF7AEFF0321062000F096F838
:103C40004721072000F092F83421092000F08EF877
:103C50000024651E8DF8044002AE012301AAAE21A6
:103C600019480095FEF7A2FA30B901233246AF2178
:103C700015480095FEF772F94FF4C87529461348A8
:103C8000FCF759FA29461248FCF755FA6421114805
:103C9000FCF751FA0F4810218430FCF74CFA0D481C
:103CA00010219430FCF747FA0B48C461047044704B
:103CB0004481C4708470C4710471447184714483FC
:103CC00004720020FEBD00000801002078020020E0
:103CD00008040020980500204C000020FEB5064690
:103CE0000520871F0D468DF80800012302AAAE218A
:103CF00019480097FEF75AFA002438B9042301AA9C
:103D0000AF2115480097FEF729F910B134802C80B7
:103D1000FEBDBDF80610BDF804004CBA40BA0F490C
:103D200000F0F2FF0D4930801031204600F0ECFF2A
:103D300028800B484179491C01F0070141718179C4
:103D4000082901D2491C8171428A018A8A42DFD93D
:103D5000511A4183FEBD0000080100201C0600200E
:103D60004C00002040210620AFF300801CB5022348
:103D70008DF804004FF0FF308DF80510009001AA77
:103D8000AE210248FEF712FA1CBD00000801002017
:103D90003EB5002411480094019402940E498460B9
:103DA000016001250573047505614FF460214460CD
:103DB000C161FDF709FC08B1FDF7C7FA0420CDE9A0
:103DC0000005694602940548FDF70EFB002801D066
:103DD000FDF7BBFA3EBD0000002401409400002026
:103DE0000D4808B5416941F0010141614069002277
:103DF00000F00100009011460B20FEF703FB0B20A2
:103E0000FEF7F2FA002211461020FEF7FBFABDE899
:103E100008401020FEF7E8BA001002402DE9F04FEC
:103E200085B000244C480094019402940394816965
:103E300041F010018161816901F0100104918169F3
:103E400041F020018161816901F0200104918169C3
:103E500041F004018161816901F0040104918169EB
:103E600041F0080181618069DFF8F08000F008000E
:103E70004FF400470490002239464046FDF79FFF6B
:103E8000DFF8DCA0002206215046FDF798FFDFF89E
:103E9000D4B0012239465846FDF791FF4FF480799E
:103EA000012249465046FDF78AFF0022C0215846AC
:103EB000FDF785FF0226012500970396CDE9015401
:103EC00069464046FDF786FE27486946CDE9005021
:103ED00050460295FDF77EFE4FF48170CDE9000556
:103EE000CDE9024669465046FDF774FE04204FF0C6
:103EF0001108CDE90008CDE9024669465046FDF7B4
:103F000069FE00970396CDE9015469465846FDF7CE
:103F100061FE009769465046CDE90145FDF75AFE1E
:103F2000C020CDE9000869465846CDE90245FDF7B5
:103F300051FECDF8009069465846CDE90145FDF7A0
:103F400049FE002211460620FEF75CFA0620FEF725
:103F50004BFA05B0BDE8F08F0010024000100140A0
:103F600000080140000C0140000021100D4810B570
:103F70000B4901600C49416000214FF4804281608F
:103F8000C0E9031241618161C1610162FDF722FF55
:103F9000002803D0BDE81040FDF7D7B910BD0000E0
:103FA0000058004008010020A086010010B586B02E
:103FB0000024174800940194029403940494134934
:103FC000059401604721C0E901144FF6FF71C0E973
:103FD000031444618461FEF771FD08B1FDF7B5F982
:103FE0004FF48050009069460948FEF710FE08B172
:103FF000FDF7ABF9049404A905480594FEF72AFDE2
:10400000002801D0FDF7A1F906B010BD002C014039
:104010005C01002010B58EB0002407940894099428
:104020000A940B941C2168460C94FCF784F81D48F4
:104030001B49C0E900145921C0E9024104618461AF
:10404000FEF73CFD08B1FDF780F94FF48050079072
:1040500007A91448FEF7DBFD08B1FDF776F9114812
:10406000FEF7D0FE08B1FDF770F90B940BA90D48CF
:104070000C94FEF7EFFC08B1FDF767F96020CDE97D
:10408000000402940022694606480494FEF754FE98
:1040900008B1FDF75AF90348FEF728FE0EB010BD2F
:1040A00000040040A40100200C4810B50A4901603A
:1040B0004FF4E1314160002181600C22C160C0E910
:1040C00004128161C161FFF73BF9002803D0BDE80C
:1040D0001040FDF73AB910BD003801403002002011
:1040E000FEE7FEE770B500240021204600F0D7F877
:1040F0000025002000F05DF96D1CEDB2802DF8D395
:10410000641CE4B2082CEFD370BD000010B5FFF7BB
:1041100085FE064C012240212046FDF750FE204638
:104120000122BDE810408021FDF749BE000C01408E
:104130002DE9F0410024124E0746802525FA04F2AD
:104140003A4080213046FDF73AFE012240213046B8
:10415000FDF735FE002240213046FDF730FE641C9D
:10416000E4B2082CEAD3012240213046FDF727FEB5
:104170003046BDE8F04100224021FDF720BE00009E
:10418000000C014010B50B4C012280212046FDF7A8
:1041900016FE012240212046FDF711FE002280215B
:1041A0002046FDF70CFE20460022BDE810404021CD
:1041B000FDF705BE000C014010B5094C002280211E
:1041C0002046FDF7FCFD012240212046FDF7F7FDCA
:1041D00020460122BDE810408021FDF7F0BD00001F
:1041E000000C014010B500204FF47A720021491CE8
:1041F0009142FCD3401C9042F8D3FFF787FFAE20DA
:1042000000F0C6F8D52000F0C3F8802000F0C0F818
:10421000A82000F0BDF83F2000F0BAF8D32000F04D
:10422000B7F8002000F0B4F8402000F0B1F8A12069
:1042300000F0AEF8C82000F0ABF8DA2000F0A8F8E3
:10424000122000F0A5F8812000F0A2F8CF2000F0A5
:104250009FF8D92000F09CF8F12000F099F8DB20BD
:1042600000F096F8302000F093F8A42000F090F8C9
:10427000A62000F08DF88D2000F08AF8142000F0C0
:1042800087F8AF2000F084F8BDE81040FFF72ABFA0
:104290000246012000E05043491EFCD2704710B591
:1042A0000C4640F0B00000F073F8102040EA141003
:1042B00000F06EF804F00F00BDE8104000F068B8A0
:1042C0002DE9F0410746CE004000083E801E15460D
:1042D0004FF0FF38F1B2C0B2FFF7E1FF1148002400
:1042E00000EB05152819A0F5805090F8000E00F09D
:1042F00060F8641CE4B2082CF4D308EB4700F1B278
:10430000C0B2FFF7CCFF00242819A0F5805090F828
:10431000080E00F04EF8641CE4B2082CF4D3BDE89B
:10432000F08100005A5300082DE9F04700241D4693
:104330001646884681460A2713E0291B0A20491E93
:10434000FFF7A6FFB6FBF0F0B0FBF7F107FB110299
:1043500008EB0400C1B248463032FFF7B1FF641CDD
:10436000E4B2AC42E9D3BDE8F0872DE9F04115464F
:104370000E460746002406E03019C1B23846FFF762
:104380009FFF641CE4B22A5D002AF5D1BDE8F081EC
:1043900010B50446FFF7F6FE7820FFF7C9FE0020AF
:1043A000FFF7C6FE2046FFF7C3FEBDE81040FFF74B
:1043B00003BF10B50446FFF7E5FE7820FFF7B8FE0F
:1043C0004020FFF7B5FE2046FFF7B2FEBDE81040E3
:1043D000FFF7F2BE704770B500242546294600223B
:1043E000204600F005F8641CE4B2032CF6D370BD3F
:1043F0002DE9F04714460F460646032800D302264F
:104400004FF07E50844201DD044603E014F1FF4F7B
:1044100000D30024DFF8B880C7F3072118F80100A3
:10442000FBF771FF2146FBF7E9FE4FF07C5A51463E
:10443000FBF78CFEFBF785FFF9B2C5B218F8010057
:10444000FBF761FF2146FBF7D9FE5146FBF77EFEE5
:10445000FBF777FFC7F3074100F0FF0918F80100E9
:10446000FBF751FF2146FBF7C9FE5146FBF76EFEF5
:10447000FBF767FF174AC4B2002106EB4603012091
:1044800002EB031201E008290ED2C1F1070300FA82
:1044900003F32B4016E000BF22F81130491CC9B2CB
:1044A0001829F0D3BDE8F087102906D2C1F10F0317
:1044B00000FA03F303EA090304E0C1F1170300FA69
:1044C00003F323400BB14823E6E71223E4E700009F
:1044D0004A590008500600207047FDF72DBF30B53F
:1044E00093B028216846FBF726FE14210AA8FBF7A3
:1044F00022FE002501200F951095119501041295BB
:104500008DE8230004904FF4E010CDE90810022458
:1045100007946846FEF7FAF808B172B6FEE70AA9F2
:104520000F2081E831004FF48060CDE90D050221B4
:104530000AA8FEF70FF808B172B6FEE74FF4004084
:1045400011900F940FA8FDF78FFF002801D072B6CD
:10455000FEE713B030BD7047F0B50268194B1A4C36
:104560001A4D4FF08047984205D0B84203D0A04280
:1045700001D0A84203D122F070064A683243984223
:1045800005D0B84203D0A04201D0A84203D122F402
:104590004074CA6822434C6922F0800222430260C0
:1045A0008A68C2620A688262984201D1096901631D
:1045B000012141610169C90703D0016921F00101AD
:1045C0000161F0BD002C01400004004000080040E3
:1045D00010B501F01F030121046A99408C43046265
:1045E000016A9A401143016210BD10B5446A01216D
:1045F000626A824205D121778069F8B984F83E1059
:104600001CE0A26A824206D1022222778069A8B900
:1046100084F83F1012E0E26A824206D10422227737
:10462000806958B984F8401008E0226B824205D1B5
:1046300008222277806908B984F841102046FEF7E5
:104640000FFC0020207710BD10B5446A616A8142DA
:1046500001D101200DE0A16A814201D1022008E0D0
:10466000E16A814201D1042003E0216B814201D142
:10467000082020772046FEF7FDFB0020207710BDA4
:1046800010B5446A0121626A824203D1217784F81D
:104690003E1019E0A26A824204D10220207784F8F9
:1046A0003F1011E0E26A824204D10420207784F8AE
:1046B000401009E0226B824204D10820207784F860
:1046C000411001E084F83D102046FEF70EFB00206B
:1046D000207710BD10B5846842EA032224F47F4499
:1046E0000A432243826010BD826822F070020A43AE
:1046F00042F007018160704730B5036A026A22F018
:10470000010202624268846924F073050C682C433C
:1047100023F002058B682B430A4DA8420BD123F0EE
:104720000805CB6822F440722B434D6923F0040343
:1047300015438A692A434260846149684163036280
:1047400030BD0000002C014030B5026A036A23F03E
:1047500010030362436884690D6824F4E64444EA64
:1047600005248D6822F0200242EA05120B4DA84272
:104770000ED1CD6822F0800242EA05124D6923F481
:10478000406343EA85038D6922F0400243EA8503D2
:104790004360846149688163026230BD002C01403E
:1047A00030B5036A026A22F4807202624268C46908
:1047B00023F4007324F073050C682C438D6843EADE
:1047C00005230C4DA8420ED1CD6823F4006343EAC3
:1047D00005234D6922F4405242EA05128D6923F403
:1047E000806342EA05124260C4614968C1630362A2
:1047F00030BD0000002C014030B5046A026A22F48A
:10480000805202624268C3690D6823F4E64343EABA
:1048100005238D6824F4005444EA0534064DA8426B
:1048200004D14D6922F4804242EA85124260C3619C
:1048300049680164046230BD002C014010B5036A70
:10484000046A24F001040462846924F0F00444EA58
:10485000021423F00A020A438461026210BD10B5FB
:10486000036A046A24F010040462846923F0A0033C
:1048700024F4704444EA023243EA01118261016285
:1048800010BD10B5406A0021C185C184FEF721FC2E
:1048900010BD01680C3151E8002F22F4907241E8FC
:1048A0000023002BF5D10168143151E8002F22F0CC
:1048B000010241E80023002BF5D1016B012909D148
:1048C00001680C3151E8002F22F0100241E800236A
:1048D000002BF5D1202180F84210002101637047A0
:1048E00008B590F84210222901D0022008BD826844
:1048F0004FF480539A4201D1016921B1816A9A42F1
:104900001BD04AB10AE00268816A5268C2F3080209
:104910000A80816A891C08E0026972B102685268E3
:1049200002F07F020A70816A491C8162C18D491EB2
:104930000904090CC18503D01BE002685268F1E745
:104940000168CA6822F02002CA600168CA6822F4BD
:104950008072CA6001684A6922F001024A6120211E
:1049600080F8421000214163026B012A03D0FEF758
:1049700059FD002008BD016301680C3151E8002F8A
:1049800022F0100241E80023002BF5D101680A68EB
:10499000D20602D50A6849680091818DFEF798FB1E
:1049A000E7E7000070B5044600680169E26821F499
:1049B0004051114301612169A068084361690843BE
:1049C0002168CA6841F20C639A430243CA602068B6
:1049D0004169A26921F44071114341611E49206877
:1049E000884202D1FDF75CFE01E0FDF749FE00EBD5
:1049F000C00101EB0012606864218000B2FBF0F39B
:104A0000B3FBF1F36FF018067343B2FBF0F5B2FBA2
:104A1000F0F605EB8305322303EB0515B5FBF1F545
:104A2000B6FBF1F605F0F00505EB0615B2FBF0F666
:104A3000B2FBF0F0B0FBF1F06FF01802504306EB60
:104A4000800003EB0010B0FBF1F0216800F00F00D4
:104A50002844886070BD0000003801402DE9F8430B
:104A6000984617460D460446089E24E0701C22D046
:104A7000FDF7AAF9A0EB0800B0421AD8CEB1206821
:104A8000C168490717D5802D15D0402D13D0016876
:104A9000C94309070FD401680025406800902046EB
:104AA000FFF7F7FE0820606484F840500120BDE85D
:104AB000F8830320FBE72068006835EA000004D093
:104AC0000020B842D2D00020F1E70120F9E7000031
:104AD0000148FEF7FFBA000030020020FEE70000A8
:104AE000014A024900F0FEB8094E00088C0000207F
:104AF0004100080218BF04200A0E18BF40F0010050
:104B00004FF07F4232EA010108BF40F00200012865
:104B100008BF052070470907090E002804DB00F1D3
:104B2000E02080F80014704700F00F0000F1E02052
:104B300080F8141D70470121FBF7D0BB0021084607
:104B4000FBF78EBB6FF05E010807FBF7C7BB0000E9
:104B50002DE9F04D0D4614464FF07F41B1EB440F67
:104B60009EBF4FF0FF312960BDE8F08D4FF000404F
:104B700040EA0421C4F3C750783810F01F024A4BB2
:104B80004FEA601CC2F120067B44C4F3C750A0F179
:104B900078004FEA601003EB800053F82C3008BF18
:104BA000D0E901C612D0D0F804C093402CFA06F721
:104BB0003B4387680CFA02FC27FA06F8C06807FA3C
:104BC00002F2F0404CEA080C42EA0006A3FB013274
:104BD000ACFB01C0A6FB016101EB0C068E4234BFA9
:104BE0004FF0010C4FF0000CC1186144BCF1000FF4
:104BF00002D0814202D903E0814201D2012000E0CB
:104C00000020104400F120024FEA92188006CA0CDE
:104C100040EA42304F03C5F80080FBF76BFB824649
:104C20003846FBF770FB6FF01201FBF757FB0746A6
:104C30003046FBF768FB6FF02501FBF74FFB83461F
:104C400039465046FBF782FA5946FBF77FFA00F5E2
:104C500000666FF30B0651463046FBF7C9FA39463A
:104C6000FBF7C6FA5946FBF7C6FA1049FBF7C6FA36
:104C700007460F493046FBF7C1FA3946FBF766FA9B
:104C800007460C493046FBF7B9FA3946FBF75EFA9E
:104C900014F0004F08BFBDE8F08DC8F1805180F0DE
:104CA00000402960BDE8F08DE80E0000DB0FC92F41
:104CB00022AAFD290000C92F02E008C8121F08C15E
:104CC000002AFAD170477047002001E001C1121F8D
:104CD000002AFBD1704700000149086070470000BE
:104CE000900000202DE9F04116460F4604460025AD
:104CF00003E03946B047641C6D1C20780028F8D1C9
:104D00002846BDE8F08100000D4B10B55C7900220B
:104D100021F814009879082801D2641C00E00824C6
:104D2000E3B2002005E000BF31F81040401C2244EF
:104D3000C0B29842F8D3B2FBF3F080B210BD0000CD
:104D40004C000020F0B5244908468A780079022AF0
:104D50003FD300252C462B4691F803C0521E24E079
:104D6000ACEB030606F1070E4FEAEE770EEB577732
:104D700027F00707AEEB0707B61D4FEAE67E06EB06
:104D80005E7E2EF0070EA6EB0E06DFF850E0FFB2B7
:104D9000F6B25EF827705EF82660B74203D9BE1BF4
:104DA000641C3544E4B25B1CDBB29342D8DB002CBC
:104DB0000FD0B5FBF4F2002A0BD04EF66023B3FB04
:104DC000F2F2D2B230B100EB40001044800808711A
:104DD0000879F0BD0A71FBE74C000020FC050020BB
:104DE00070B5084C05460020216848622046FDF752
:104DF000D3FE2068416AA942FCD3BDE87040014857
:104E0000FDF7F2BE5C01002013B54FF6FF730122DF
:104E100069460248FEF707FB00981CBD30020020DF
:104E20007EB5002204461546002901DA01254942D3
:104E30006B4661B10A2000290DDD91FBF0F600FB05
:104E4000161691FBF0F130369E54521CF3E73020D9
:104E50008DF800000122002015B12D2020700120C6
:104E6000521E03D4995C2154401CF9E77EBDFDF726
:104E70006BFAFFF734FBFEF7D1FFFEF7B1FFFFF748
:104E800013F9FFF773F8FEF783FFFFF78FF8FFF7CB
:104E9000C1F8FBF79FFBFBF7E5FCFBF7FBFE2320CC
:104EA000FCF778FEF7E7000070B50D4604460328CE
:104EB00000D302241046FBF726FA0A49FBF7D0F983
:104EC00002464FF07E50824201DD024603E012F1BD
:104ED000FF4F00D3002229462046BDE87040FFF76F
:104EE00087BA00000000C8422DE9F8430446024694
:104EF00052486946B0EB420F09D94FF0E640B0EB9B
:104F0000420F94BF00204FF0FF30009030E04C4B38
:104F100022F00040834271D94A492046FBF76EF9DE
:104F2000FBF75AFA8046FBF7F3F900F00300009014
:104F300045494046FBF762F9054644494046FBF7C0
:104F40005DF9064642494046FBF758F90746414994
:104F50004046FBF753F92146FBF74DF93946FBF77D
:104F600047F93146FBF744F92946FBF741F9044676
:104F70002546009C002C45DB294614F0010F08460D
:104F80001ED0FBF73BF905463349FBF737F93349A8
:104F9000FBF7DCF82946FBF731F93149FBF7D6F886
:104FA0002946FBF72BF94FF07E51FBF7CFF814F0B1
:104FB000020F08BFBDE8F88380F00040BDE8F88329
:104FC000FBF71CF906462749FBF718F92649FBF7BA
:104FD00012F93146FBF712F92449FBF7B7F83146CD
:104FE000FBF70CF92946FBF709F92946FBF7AEF860
:104FF00014F0020FE0D1BDE8F883FFE71046FFF799
:10500000A7FDB4E76800B0F17F4F09D22846FFF74B
:105010006FFD042808BFFFF795FD2846BDE8F8831B
:1050200006D10120FFF758FEBDE8F843FFF786BD23
:105030002846BDE8F843FFF77EBD0000B61F927E0C
:10504000490E494683F9223F1A61342C0020A233CD
:1050500000A0FD390000C93FB93AB2BACA9F2A3D43
:10506000DDFFFFBE336D4C39DA82083CA0AA2ABEB0
:105070002DE9F041412810D940F6AC51884210D2B8
:105080004138C0EB401101EB801040F66B5190FBB2
:10509000F1F0401DC4B2052C01D2052402E0642CBD
:1050A00000D96424264964258868401C8860B0FBC8
:1050B000F5F105FB1100FBF726F92249FBF7D0F8C3
:1050C0000121FBF70BF92049FBF798F8FFF70CFFDC
:1050D0001E49FBF793F81E49FBF738F806462046B1
:1050E000FBF711F93146FBF789F8FBF72AF9C6B24D
:1050F000FF20462C04D960F307073C46C82004E093
:10510000282C07D965F307073C4660F30F2465F3A5
:10511000174407E0322161F307073C4665F30F248B
:1051200060F317440025324621462846FFF7BCFEAF
:105130006D1CEDB2032DF6D3BDE8F04100F0EEB8E2
:105140007C0000200000C842DB0F49409A99193EBC
:105150009A99593F10B5054C0120207000206070CD
:10516000A070FCF731FE606010BD00007C000020E4
:105170002DE9F047674C88B0207800287DD0FCF7F7
:1051800023FE0546217864480027012908D04FF006
:10519000030A02292DD0032958D004296ED1AAE090
:1051A0006168691A782950D3002680466078864263
:1051B00003D15022D8F8141001E0394600223046BD
:1051C000FFF772FE761CF6B2032EEFD300F0A6F8BE
:1051D00065606078401CC0B2607003284ED3677071
:1051E000A078401CC0B2A070032847D302202070D2
:1051F00029E06168691A282927D36178192901D320
:10520000C1F1320189064FEA116800268146424603
:105210003046D9F81810FFF747FE761CF6B2032E79
:10522000F5D300F07BF865606078401CC0B2607018
:10523000322866D36770A078401CC0B2A0700228E4
:105240005FD384F800A06770A7705CE0C169069125
:10525000016A0091406A0190BDF81800ADF80C0099
:105260009DF81A008DF80E00BDF80000ADF80F0093
:105270009DF802008DF8110001E045E041E0BDF825
:105280000400ADF812009DF806008DF81400606867
:10529000281AC82837D30026D0460DF10C096078AB
:1052A0003118B1FBF8F208FB121000EB400101EBE2
:1052B00009003C220188ADF8041080788DF80600C2
:1052C00030460199FFF7F0FD761CF6B2032EE6D3C7
:1052D00000F024F865606078401CC0B2607003285C
:1052E0000FD36770A078401CC0B2A070032808D309
:1052F0000420207007E0FFF76EF800F00FF8277029
:1053000005E0207818B1012008B0BDE8F087002042
:10531000FAE700007C0000204C5A00086023024A93
:1053200000210248FDF7A8BD50060020A40100207E
:10533000010202030405060708090A0B0C0D0E0FF3
:105340001010000000000000000001020304060726
:105350000809000000000102030400000000000032
:1053600000000000000000000000000000F8000045
:105370000000000000333000000000100C06100C8C
:105380000600000000000000000040C07840C07827
:105390004000043F04043F040400007088FC08300F
:1053A0000000001820FF211E0000F008F000E018A7
:1053B000000000211C031E211E0000F00888700060
:1053C00000001E2123241927211010160E000000B2
:1053D00000000000000000000000000000E01804D1
:1053E0000200000000071820400000020418E0003E
:1053F00000000040201807000000404080F080407E
:1054000040000202010F01020200000000F0000053
:1054100000000101011F0101010000000000000067
:10542000000080B0700000000000000000000000DC
:105430000000000101010101010100000000000065
:10544000000000303000000000000000000080601C
:105450001804006018060100000000E010080810A1
:10546000E000000F102020100F00001010F80000C6
:1054700000000020203F202000000070080808885D
:10548000700000302824222130000030088888482D
:1054900030000018202020110E000000C02010F85D
:1054A000000000070424243F240000F8088888082E
:1054B00008000019212020110E0000E01088881833
:1054C0000000000F112020110E0000380808C83815
:1054D00008000000003F00000000007088080888F5
:1054E0007000001C222121221C0000E0100808107E
:1054F000E0000000312222110F00000000C0C000B7
:1055000000000000003030000000000000800000BB
:1055100000000000806000000000000080402010BB
:1055200008000001020408102000404040404040B4
:105530004000040404040404040000081020408017
:10554000000000201008040201000070480808084C
:10555000F0000000003036010000C030C828E8101C
:10556000E0000718272423140B000000C038E000D7
:105570000000203C23020227382008F88888887021
:105580000000203F202020110E00C030080808082D
:105590003800071820202010080008F80808081014
:1055A000E000203F202020100F0008F88888E8083D
:1055B0001000203F20202320180008F88888E808E1
:1055C0001000203F200003000000C0300808083809
:1055D000000007182020221E020008F8080000081A
:1055E000F808203F210101213F20000808F80808A1
:1055F00000000020203F2020000000000808F808DC
:105600000800C08080807F00000008F888C028184B
:105610000800203F20012638200008F8080000007C
:105620000000203F20202020300008F8F800F8F883
:105630000800203F003F003F200008F830C000086D
:10564000F808203F200007183F00E0100808081065
:10565000E0000F10202020100F0008F808080808AC
:10566000F000203F210101010000E01008080810AF
:10567000E0000F18242438504F0008F888888888E4
:105680007000203F2000030C3020007088080808BC
:1056900038000038202121221C00180808F80808CA
:1056A00018000000203F2000000008F80800000853
:1056B000F808001F202020201F000878880000C85C
:1056C0003808000007380E010000F80800F800084C
:1056D000F800033C0700073C030008186880806856
:1056E000180820302C03032C30200838C800C83894
:1056F00008000000203F2000000010080808C838FB
:1057000008002038262120201800000000FE020298
:1057100002000000007F40404000000C30C000004C
:105720000000000000010638C00000020202FE0076
:105730000000004040407F00000000000402020220
:105740000400000000000000000000000000000055
:105750000000808080808080808000020204000041
:105760000000000000000000000000008080808039
:1057700000000019242222223F2008F80080800027
:105780000000003F112020110E00000000808080EA
:105790000000000E112020201100000000808088F1
:1057A000F800000E112020103F2000008080808033
:1057B0000000001F222222221300008080F088882F
:1057C00088180020203F202000000000808080807A
:1057D0008000006B94949493600008F800808080AF
:1057E0000000203F210000203F200080989800000A
:1057F00000000020203F202000000000008098983A
:10580000000000C08080807F000008F800008080D9
:105810008000203F24022D302000000808F80000FE
:1058200000000020203F20200000808080808080B9
:105830008000203F20003F20003F8080008080804B
:105840000000203F210000203F2000008080808059
:105850000000001F202020201F008080008080008A
:10586000000080FFA12020110E0000000080808039
:105870008000000E112020A0FF80808080008080AA
:10588000800020203F2120000100000080808080D7
:1058900080000033242424241900008080E08080CC
:1058A00000000000001F2020000080800000008019
:1058B0008000001F202020103F208080800000807A
:1058C000808000010E30080601008080008000808A
:1058D00080800F300C030C300F000080800080802F
:1058E00080000020312E0E3120008080800000805A
:1058F000808080818E70180601000080808080800A
:1059000080000021302C2221300000000000807C2B
:10591000020200000000003F404000000000FF00C5
:10592000000000000000FF0000000002027C800078
:1059300000000040403F000000000006010102029C
:10594000040400000000000000000000000000004F
:105950000000000000000000000101010101010140
:105960000101010202020202020203030303030413
:1059700004040405050505060606060707070808CA
:10598000080909090A0A0B0B0B0C0C0D0D0D0E0E64
:105990000F0F1010111112121313141415161617DD
:1059A000171819191A1A1B1C1C1D1E1E1F20212135
:1059B000222324242526272828292A2B2C2D2D2E66
:1059C0002F303132333435363738393A3B3C3D3E6F
:1059D0003F4041424344454648494A4B4C4E4F5054
:1059E000515354555658595A5C5D5E606163646505
:1059F00067686A6B6D6E707173747677797B7C7E85
:105A00007F8183848688898B8D8F909294969799D5
:105A10009B9D9FA1A2A4A6A8AAACAEB0B2B4B6B8F2
:105A2000BABCBEC0C2C4C6C8CACDCFD1D3D5D7DADE
:105A3000DCDEE0E3E5E7E9ECEEF0F3F5F7FAFCFF96
:105A4000FFFFFFFFFFFFFFFFFFFF0000FF00000061
:105A5000FF00000000FF00000000FF00FFFFFF004C
:105A6000FF000000FFFFFF00FF00000000FF00003C
:105A70000000FF00000000006E83F9A22915444ECB
:105A8000D15727FCC0DD34F5999562DB4190433C4A
:105A9000AB6351FEB45A00080000002094000000DF
:105AA000B84C0008485B0008940000200C0B000074
:105AB000C84C0008010000001000000000000000B9
:105AC00000127A000000000000000000000300FF48
:105AD000FF000000000000000000000000000000C7
